{
	".git/Risk/Contrepartie.sol": {
		"GestionnaireRisqueContrepartie": {
			"abi": [
				{
					"inputs": [
						{
							"internalType": "address",
							"name": "_emetteur",
							"type": "address"
						}
					],
					"stateMutability": "nonpayable",
					"type": "constructor"
				},
				{
					"anonymous": false,
					"inputs": [
						{
							"indexed": true,
							"internalType": "address",
							"name": "contrepartie",
							"type": "address"
						},
						{
							"indexed": false,
							"internalType": "uint256",
							"name": "limiteExposition",
							"type": "uint256"
						}
					],
					"name": "ContrepartieAjoutee",
					"type": "event"
				},
				{
					"anonymous": false,
					"inputs": [
						{
							"indexed": true,
							"internalType": "address",
							"name": "contrepartie",
							"type": "address"
						},
						{
							"indexed": false,
							"internalType": "uint256",
							"name": "nouvelleExposition",
							"type": "uint256"
						},
						{
							"indexed": false,
							"internalType": "uint256",
							"name": "timestamp",
							"type": "uint256"
						}
					],
					"name": "ExpositionMiseAJour",
					"type": "event"
				},
				{
					"anonymous": false,
					"inputs": [
						{
							"indexed": true,
							"internalType": "address",
							"name": "contrepartie",
							"type": "address"
						},
						{
							"indexed": false,
							"internalType": "uint256",
							"name": "exposition",
							"type": "uint256"
						},
						{
							"indexed": false,
							"internalType": "uint256",
							"name": "limite",
							"type": "uint256"
						},
						{
							"indexed": false,
							"internalType": "uint256",
							"name": "timestamp",
							"type": "uint256"
						}
					],
					"name": "LimiteDepassee",
					"type": "event"
				},
				{
					"inputs": [
						{
							"internalType": "address",
							"name": "_portefeuille",
							"type": "address"
						},
						{
							"internalType": "uint256",
							"name": "_scoreCredit",
							"type": "uint256"
						},
						{
							"internalType": "uint256",
							"name": "_limiteExposition",
							"type": "uint256"
						},
						{
							"internalType": "uint256",
							"name": "_expositionCourante",
							"type": "uint256"
						},
						{
							"internalType": "uint256",
							"name": "_collateral",
							"type": "uint256"
						}
					],
					"name": "ajouterContrepartie",
					"outputs": [],
					"stateMutability": "nonpayable",
					"type": "function"
				},
				{
					"inputs": [
						{
							"internalType": "address",
							"name": "_portefeuille",
							"type": "address"
						}
					],
					"name": "calculerRatioCouverture",
					"outputs": [
						{
							"internalType": "uint256",
							"name": "",
							"type": "uint256"
						}
					],
					"stateMutability": "view",
					"type": "function"
				},
				{
					"inputs": [
						{
							"internalType": "address",
							"name": "_portefeuille",
							"type": "address"
						}
					],
					"name": "calculerScoreRisque",
					"outputs": [
						{
							"internalType": "uint256",
							"name": "",
							"type": "uint256"
						}
					],
					"stateMutability": "view",
					"type": "function"
				},
				{
					"inputs": [
						{
							"internalType": "address",
							"name": "",
							"type": "address"
						}
					],
					"name": "contreparties",
					"outputs": [
						{
							"internalType": "address",
							"name": "portefeuille",
							"type": "address"
						},
						{
							"internalType": "uint256",
							"name": "scoreCredit",
							"type": "uint256"
						},
						{
							"internalType": "uint256",
							"name": "limiteExposition",
							"type": "uint256"
						},
						{
							"internalType": "uint256",
							"name": "expositionCourante",
							"type": "uint256"
						},
						{
							"internalType": "uint256",
							"name": "collateral",
							"type": "uint256"
						},
						{
							"internalType": "bool",
							"name": "estActif",
							"type": "bool"
						}
					],
					"stateMutability": "view",
					"type": "function"
				},
				{
					"inputs": [],
					"name": "emetteur",
					"outputs": [
						{
							"internalType": "address",
							"name": "",
							"type": "address"
						}
					],
					"stateMutability": "view",
					"type": "function"
				},
				{
					"inputs": [
						{
							"internalType": "address",
							"name": "_portefeuille",
							"type": "address"
						},
						{
							"internalType": "uint256",
							"name": "_exposition",
							"type": "uint256"
						}
					],
					"name": "mettreAJourExposition",
					"outputs": [],
					"stateMutability": "nonpayable",
					"type": "function"
				},
				{
					"inputs": [
						{
							"internalType": "address",
							"name": "_nouvelEmetteur",
							"type": "address"
						}
					],
					"name": "modifierEmetteur",
					"outputs": [],
					"stateMutability": "nonpayable",
					"type": "function"
				},
				{
					"inputs": [],
					"name": "owner",
					"outputs": [
						{
							"internalType": "address",
							"name": "",
							"type": "address"
						}
					],
					"stateMutability": "view",
					"type": "function"
				},
				{
					"inputs": [],
					"name": "totalExposure",
					"outputs": [
						{
							"internalType": "uint256",
							"name": "",
							"type": "uint256"
						}
					],
					"stateMutability": "view",
					"type": "function"
				}
			],
			"devdoc": {
				"details": "Ce contrat gère les contreparties, les expositions, les calculs de risques      et les événements liés aux dépassements de limites.",
				"kind": "dev",
				"methods": {},
				"title": "Gestionnaire des Risques de Contrepartie",
				"version": 1
			},
			"evm": {
				"assembly": "    /* \".git/Risk/Contrepartie.sol\":272:4853  contract GestionnaireRisqueContrepartie {... */\n  mstore(0x40, 0x80)\n    /* \".git/Risk/Contrepartie.sol\":1416:1587  constructor(address _emetteur) {... */\n  callvalue\n  dup1\n  iszero\n  tag_1\n  jumpi\n  0x00\n  dup1\n  revert\ntag_1:\n  pop\n  mload(0x40)\n  sub(codesize, bytecodeSize)\n  dup1\n  bytecodeSize\n  dup4\n  codecopy\n  dup2\n  dup2\n  add\n  0x40\n  mstore\n  dup2\n  add\n  swap1\n  tag_2\n  swap2\n  swap1\n  tag_3\n  jump\t// in\ntag_2:\n    /* \".git/Risk/Contrepartie.sol\":1487:1488  0 */\n  0x00\n    /* \".git/Risk/Contrepartie.sol\":1466:1489  _emetteur != address(0) */\n  0xffffffffffffffffffffffffffffffffffffffff\n  and\n    /* \".git/Risk/Contrepartie.sol\":1466:1475  _emetteur */\n  dup2\n    /* \".git/Risk/Contrepartie.sol\":1466:1489  _emetteur != address(0) */\n  0xffffffffffffffffffffffffffffffffffffffff\n  and\n  sub\n    /* \".git/Risk/Contrepartie.sol\":1458:1519  require(_emetteur != address(0), \"Adresse emetteur invalide\") */\n  tag_6\n  jumpi\n  mload(0x40)\n  0x08c379a000000000000000000000000000000000000000000000000000000000\n  dup2\n  mstore\n  0x04\n  add\n  tag_7\n  swap1\n  tag_8\n  jump\t// in\ntag_7:\n  mload(0x40)\n  dup1\n  swap2\n  sub\n  swap1\n  revert\ntag_6:\n    /* \".git/Risk/Contrepartie.sol\":1538:1548  msg.sender */\n  caller\n    /* \".git/Risk/Contrepartie.sol\":1530:1535  owner */\n  0x02\n  0x00\n    /* \".git/Risk/Contrepartie.sol\":1530:1548  owner = msg.sender */\n  0x0100\n  exp\n  dup2\n  sload\n  dup2\n  0xffffffffffffffffffffffffffffffffffffffff\n  mul\n  not\n  and\n  swap1\n  dup4\n  0xffffffffffffffffffffffffffffffffffffffff\n  and\n  mul\n  or\n  swap1\n  sstore\n  pop\n    /* \".git/Risk/Contrepartie.sol\":1570:1579  _emetteur */\n  dup1\n    /* \".git/Risk/Contrepartie.sol\":1559:1567  emetteur */\n  0x03\n  0x00\n    /* \".git/Risk/Contrepartie.sol\":1559:1579  emetteur = _emetteur */\n  0x0100\n  exp\n  dup2\n  sload\n  dup2\n  0xffffffffffffffffffffffffffffffffffffffff\n  mul\n  not\n  and\n  swap1\n  dup4\n  0xffffffffffffffffffffffffffffffffffffffff\n  and\n  mul\n  or\n  swap1\n  sstore\n  pop\n    /* \".git/Risk/Contrepartie.sol\":1416:1587  constructor(address _emetteur) {... */\n  pop\n    /* \".git/Risk/Contrepartie.sol\":272:4853  contract GestionnaireRisqueContrepartie {... */\n  jump(tag_9)\n    /* \"#utility.yul\":88:205   */\ntag_11:\n    /* \"#utility.yul\":197:198   */\n  0x00\n    /* \"#utility.yul\":194:195   */\n  dup1\n    /* \"#utility.yul\":187:199   */\n  revert\n    /* \"#utility.yul\":334:460   */\ntag_13:\n    /* \"#utility.yul\":371:378   */\n  0x00\n    /* \"#utility.yul\":411:453   */\n  0xffffffffffffffffffffffffffffffffffffffff\n    /* \"#utility.yul\":404:409   */\n  dup3\n    /* \"#utility.yul\":400:454   */\n  and\n    /* \"#utility.yul\":389:454   */\n  swap1\n  pop\n    /* \"#utility.yul\":334:460   */\n  swap2\n  swap1\n  pop\n  jump\t// out\n    /* \"#utility.yul\":466:562   */\ntag_14:\n    /* \"#utility.yul\":503:510   */\n  0x00\n    /* \"#utility.yul\":532:556   */\n  tag_26\n    /* \"#utility.yul\":550:555   */\n  dup3\n    /* \"#utility.yul\":532:556   */\n  tag_13\n  jump\t// in\ntag_26:\n    /* \"#utility.yul\":521:556   */\n  swap1\n  pop\n    /* \"#utility.yul\":466:562   */\n  swap2\n  swap1\n  pop\n  jump\t// out\n    /* \"#utility.yul\":568:690   */\ntag_15:\n    /* \"#utility.yul\":641:665   */\n  tag_28\n    /* \"#utility.yul\":659:664   */\n  dup2\n    /* \"#utility.yul\":641:665   */\n  tag_14\n  jump\t// in\ntag_28:\n    /* \"#utility.yul\":634:639   */\n  dup2\n    /* \"#utility.yul\":631:666   */\n  eq\n    /* \"#utility.yul\":621:684   */\n  tag_29\n  jumpi\n    /* \"#utility.yul\":680:681   */\n  0x00\n    /* \"#utility.yul\":677:678   */\n  dup1\n    /* \"#utility.yul\":670:682   */\n  revert\n    /* \"#utility.yul\":621:684   */\ntag_29:\n    /* \"#utility.yul\":568:690   */\n  pop\n  jump\t// out\n    /* \"#utility.yul\":696:839   */\ntag_16:\n    /* \"#utility.yul\":753:758   */\n  0x00\n    /* \"#utility.yul\":784:790   */\n  dup2\n    /* \"#utility.yul\":778:791   */\n  mload\n    /* \"#utility.yul\":769:791   */\n  swap1\n  pop\n    /* \"#utility.yul\":800:833   */\n  tag_31\n    /* \"#utility.yul\":827:832   */\n  dup2\n    /* \"#utility.yul\":800:833   */\n  tag_15\n  jump\t// in\ntag_31:\n    /* \"#utility.yul\":696:839   */\n  swap3\n  swap2\n  pop\n  pop\n  jump\t// out\n    /* \"#utility.yul\":845:1196   */\ntag_3:\n    /* \"#utility.yul\":915:921   */\n  0x00\n    /* \"#utility.yul\":964:966   */\n  0x20\n    /* \"#utility.yul\":952:961   */\n  dup3\n    /* \"#utility.yul\":943:950   */\n  dup5\n    /* \"#utility.yul\":939:962   */\n  sub\n    /* \"#utility.yul\":935:967   */\n  slt\n    /* \"#utility.yul\":932:1051   */\n  iszero\n  tag_33\n  jumpi\n    /* \"#utility.yul\":970:1049   */\n  tag_34\n  tag_11\n  jump\t// in\ntag_34:\n    /* \"#utility.yul\":932:1051   */\ntag_33:\n    /* \"#utility.yul\":1090:1091   */\n  0x00\n    /* \"#utility.yul\":1115:1179   */\n  tag_35\n    /* \"#utility.yul\":1171:1178   */\n  dup5\n    /* \"#utility.yul\":1162:1168   */\n  dup3\n    /* \"#utility.yul\":1151:1160   */\n  dup6\n    /* \"#utility.yul\":1147:1169   */\n  add\n    /* \"#utility.yul\":1115:1179   */\n  tag_16\n  jump\t// in\ntag_35:\n    /* \"#utility.yul\":1105:1179   */\n  swap2\n  pop\n    /* \"#utility.yul\":1061:1189   */\n  pop\n    /* \"#utility.yul\":845:1196   */\n  swap3\n  swap2\n  pop\n  pop\n  jump\t// out\n    /* \"#utility.yul\":1202:1371   */\ntag_17:\n    /* \"#utility.yul\":1286:1297   */\n  0x00\n    /* \"#utility.yul\":1320:1326   */\n  dup3\n    /* \"#utility.yul\":1315:1318   */\n  dup3\n    /* \"#utility.yul\":1308:1327   */\n  mstore\n    /* \"#utility.yul\":1360:1364   */\n  0x20\n    /* \"#utility.yul\":1355:1358   */\n  dup3\n    /* \"#utility.yul\":1351:1365   */\n  add\n    /* \"#utility.yul\":1336:1365   */\n  swap1\n  pop\n    /* \"#utility.yul\":1202:1371   */\n  swap3\n  swap2\n  pop\n  pop\n  jump\t// out\n    /* \"#utility.yul\":1377:1552   */\ntag_18:\n    /* \"#utility.yul\":1517:1544   */\n  0x4164726573736520656d65747465757220696e76616c69646500000000000000\n    /* \"#utility.yul\":1513:1514   */\n  0x00\n    /* \"#utility.yul\":1505:1511   */\n  dup3\n    /* \"#utility.yul\":1501:1515   */\n  add\n    /* \"#utility.yul\":1494:1545   */\n  mstore\n    /* \"#utility.yul\":1377:1552   */\n  pop\n  jump\t// out\n    /* \"#utility.yul\":1558:1924   */\ntag_19:\n    /* \"#utility.yul\":1700:1703   */\n  0x00\n    /* \"#utility.yul\":1721:1788   */\n  tag_39\n    /* \"#utility.yul\":1785:1787   */\n  0x19\n    /* \"#utility.yul\":1780:1783   */\n  dup4\n    /* \"#utility.yul\":1721:1788   */\n  tag_17\n  jump\t// in\ntag_39:\n    /* \"#utility.yul\":1714:1788   */\n  swap2\n  pop\n    /* \"#utility.yul\":1797:1890   */\n  tag_40\n    /* \"#utility.yul\":1886:1889   */\n  dup3\n    /* \"#utility.yul\":1797:1890   */\n  tag_18\n  jump\t// in\ntag_40:\n    /* \"#utility.yul\":1915:1917   */\n  0x20\n    /* \"#utility.yul\":1910:1913   */\n  dup3\n    /* \"#utility.yul\":1906:1918   */\n  add\n    /* \"#utility.yul\":1899:1918   */\n  swap1\n  pop\n    /* \"#utility.yul\":1558:1924   */\n  swap2\n  swap1\n  pop\n  jump\t// out\n    /* \"#utility.yul\":1930:2349   */\ntag_8:\n    /* \"#utility.yul\":2096:2100   */\n  0x00\n    /* \"#utility.yul\":2134:2136   */\n  0x20\n    /* \"#utility.yul\":2123:2132   */\n  dup3\n    /* \"#utility.yul\":2119:2137   */\n  add\n    /* \"#utility.yul\":2111:2137   */\n  swap1\n  pop\n    /* \"#utility.yul\":2183:2192   */\n  dup2\n    /* \"#utility.yul\":2177:2181   */\n  dup2\n    /* \"#utility.yul\":2173:2193   */\n  sub\n    /* \"#utility.yul\":2169:2170   */\n  0x00\n    /* \"#utility.yul\":2158:2167   */\n  dup4\n    /* \"#utility.yul\":2154:2171   */\n  add\n    /* \"#utility.yul\":2147:2194   */\n  mstore\n    /* \"#utility.yul\":2211:2342   */\n  tag_42\n    /* \"#utility.yul\":2337:2341   */\n  dup2\n    /* \"#utility.yul\":2211:2342   */\n  tag_19\n  jump\t// in\ntag_42:\n    /* \"#utility.yul\":2203:2342   */\n  swap1\n  pop\n    /* \"#utility.yul\":1930:2349   */\n  swap2\n  swap1\n  pop\n  jump\t// out\n    /* \".git/Risk/Contrepartie.sol\":272:4853  contract GestionnaireRisqueContrepartie {... */\ntag_9:\n  dataSize(sub_0)\n  dup1\n  dataOffset(sub_0)\n  0x00\n  codecopy\n  0x00\n  return\nstop\n\nsub_0: assembly {\n        /* \".git/Risk/Contrepartie.sol\":272:4853  contract GestionnaireRisqueContrepartie {... */\n      mstore(0x40, 0x80)\n      callvalue\n      dup1\n      iszero\n      tag_1\n      jumpi\n      0x00\n      dup1\n      revert\n    tag_1:\n      pop\n      jumpi(tag_2, lt(calldatasize, 0x04))\n      shr(0xe0, calldataload(0x00))\n      dup1\n      0x79f883da\n      gt\n      tag_12\n      jumpi\n      dup1\n      0x79f883da\n      eq\n      tag_7\n      jumpi\n      dup1\n      0x8518c6d4\n      eq\n      tag_8\n      jumpi\n      dup1\n      0x8da5cb5b\n      eq\n      tag_9\n      jumpi\n      dup1\n      0xc04dcc30\n      eq\n      tag_10\n      jumpi\n      dup1\n      0xf70a1017\n      eq\n      tag_11\n      jumpi\n      jump(tag_2)\n    tag_12:\n      dup1\n      0x0aae162e\n      eq\n      tag_3\n      jumpi\n      dup1\n      0x1922701e\n      eq\n      tag_4\n      jumpi\n      dup1\n      0x760b1eee\n      eq\n      tag_5\n      jumpi\n      dup1\n      0x786a2d08\n      eq\n      tag_6\n      jumpi\n    tag_2:\n      0x00\n      dup1\n      revert\n        /* \".git/Risk/Contrepartie.sol\":3771:4124  function calculerRatioCouverture(address _portefeuille) public view returns (uint256) {... */\n    tag_3:\n      tag_13\n      0x04\n      dup1\n      calldatasize\n      sub\n      dup2\n      add\n      swap1\n      tag_14\n      swap2\n      swap1\n      tag_15\n      jump\t// in\n    tag_14:\n      tag_16\n      jump\t// in\n    tag_13:\n      mload(0x40)\n      tag_17\n      swap2\n      swap1\n      tag_18\n      jump\t// in\n    tag_17:\n      mload(0x40)\n      dup1\n      swap2\n      sub\n      swap1\n      return\n        /* \".git/Risk/Contrepartie.sol\":2942:3763  function mettreAJourExposition(address _portefeuille, uint256 _exposition) public {... */\n    tag_4:\n      tag_19\n      0x04\n      dup1\n      calldatasize\n      sub\n      dup2\n      add\n      swap1\n      tag_20\n      swap2\n      swap1\n      tag_21\n      jump\t// in\n    tag_20:\n      tag_22\n      jump\t// in\n    tag_19:\n      stop\n        /* \".git/Risk/Contrepartie.sol\":770:823  mapping(address => Contrepartie) public contreparties */\n    tag_5:\n      tag_23\n      0x04\n      dup1\n      calldatasize\n      sub\n      dup2\n      add\n      swap1\n      tag_24\n      swap2\n      swap1\n      tag_15\n      jump\t// in\n    tag_24:\n      tag_25\n      jump\t// in\n    tag_23:\n      mload(0x40)\n      tag_26\n      swap7\n      swap6\n      swap5\n      swap4\n      swap3\n      swap2\n      swap1\n      tag_27\n      jump\t// in\n    tag_26:\n      mload(0x40)\n      dup1\n      swap2\n      sub\n      swap1\n      return\n        /* \".git/Risk/Contrepartie.sol\":4132:4850  function calculerScoreRisque(address _portefeuille) public view returns (uint256) {... */\n    tag_6:\n      tag_28\n      0x04\n      dup1\n      calldatasize\n      sub\n      dup2\n      add\n      swap1\n      tag_29\n      swap2\n      swap1\n      tag_15\n      jump\t// in\n    tag_29:\n      tag_30\n      jump\t// in\n    tag_28:\n      mload(0x40)\n      tag_31\n      swap2\n      swap1\n      tag_18\n      jump\t// in\n    tag_31:\n      mload(0x40)\n      dup1\n      swap2\n      sub\n      swap1\n      return\n        /* \".git/Risk/Contrepartie.sol\":886:914  uint256 public totalExposure */\n    tag_7:\n      tag_32\n      tag_33\n      jump\t// in\n    tag_32:\n      mload(0x40)\n      tag_34\n      swap2\n      swap1\n      tag_18\n      jump\t// in\n    tag_34:\n      mload(0x40)\n      dup1\n      swap2\n      sub\n      swap1\n      return\n        /* \".git/Risk/Contrepartie.sol\":950:973  address public emetteur */\n    tag_8:\n      tag_35\n      tag_36\n      jump\t// in\n    tag_35:\n      mload(0x40)\n      tag_37\n      swap2\n      swap1\n      tag_38\n      jump\t// in\n    tag_37:\n      mload(0x40)\n      dup1\n      swap2\n      sub\n      swap1\n      return\n        /* \".git/Risk/Contrepartie.sol\":923:943  address public owner */\n    tag_9:\n      tag_39\n      tag_40\n      jump\t// in\n    tag_39:\n      mload(0x40)\n      tag_41\n      swap2\n      swap1\n      tag_38\n      jump\t// in\n    tag_41:\n      mload(0x40)\n      dup1\n      swap2\n      sub\n      swap1\n      return\n        /* \".git/Risk/Contrepartie.sol\":1803:2934  function ajouterContrepartie(... */\n    tag_10:\n      tag_42\n      0x04\n      dup1\n      calldatasize\n      sub\n      dup2\n      add\n      swap1\n      tag_43\n      swap2\n      swap1\n      tag_44\n      jump\t// in\n    tag_43:\n      tag_45\n      jump\t// in\n    tag_42:\n      stop\n        /* \".git/Risk/Contrepartie.sol\":1595:1795  function modifierEmetteur(address _nouvelEmetteur) public onlyOwner {... */\n    tag_11:\n      tag_46\n      0x04\n      dup1\n      calldatasize\n      sub\n      dup2\n      add\n      swap1\n      tag_47\n      swap2\n      swap1\n      tag_15\n      jump\t// in\n    tag_47:\n      tag_48\n      jump\t// in\n    tag_46:\n      stop\n        /* \".git/Risk/Contrepartie.sol\":3771:4124  function calculerRatioCouverture(address _portefeuille) public view returns (uint256) {... */\n    tag_16:\n        /* \".git/Risk/Contrepartie.sol\":3848:3855  uint256 */\n      0x00\n        /* \".git/Risk/Contrepartie.sol\":3868:3890  Contrepartie memory cp */\n      dup1\n        /* \".git/Risk/Contrepartie.sol\":3893:3906  contreparties */\n      0x00\n        /* \".git/Risk/Contrepartie.sol\":3893:3921  contreparties[_portefeuille] */\n      dup1\n        /* \".git/Risk/Contrepartie.sol\":3907:3920  _portefeuille */\n      dup5\n        /* \".git/Risk/Contrepartie.sol\":3893:3921  contreparties[_portefeuille] */\n      0xffffffffffffffffffffffffffffffffffffffff\n      and\n      0xffffffffffffffffffffffffffffffffffffffff\n      and\n      dup2\n      mstore\n      0x20\n      add\n      swap1\n      dup2\n      mstore\n      0x20\n      add\n      0x00\n      keccak256\n        /* \".git/Risk/Contrepartie.sol\":3868:3921  Contrepartie memory cp = contreparties[_portefeuille] */\n      mload(0x40)\n      dup1\n      0xc0\n      add\n      0x40\n      mstore\n      swap1\n      dup2\n      0x00\n      dup3\n      add\n      0x00\n      swap1\n      sload\n      swap1\n      0x0100\n      exp\n      swap1\n      div\n      0xffffffffffffffffffffffffffffffffffffffff\n      and\n      0xffffffffffffffffffffffffffffffffffffffff\n      and\n      0xffffffffffffffffffffffffffffffffffffffff\n      and\n      dup2\n      mstore\n      0x20\n      add\n      0x01\n      dup3\n      add\n      sload\n      dup2\n      mstore\n      0x20\n      add\n      0x02\n      dup3\n      add\n      sload\n      dup2\n      mstore\n      0x20\n      add\n      0x03\n      dup3\n      add\n      sload\n      dup2\n      mstore\n      0x20\n      add\n      0x04\n      dup3\n      add\n      sload\n      dup2\n      mstore\n      0x20\n      add\n      0x05\n      dup3\n      add\n      0x00\n      swap1\n      sload\n      swap1\n      0x0100\n      exp\n      swap1\n      div\n      0xff\n      and\n      iszero\n      iszero\n      iszero\n      iszero\n      dup2\n      mstore\n      pop\n      pop\n      swap1\n      pop\n        /* \".git/Risk/Contrepartie.sol\":3940:3942  cp */\n      dup1\n        /* \".git/Risk/Contrepartie.sol\":3940:3951  cp.estActif */\n      0xa0\n      add\n      mload\n        /* \".git/Risk/Contrepartie.sol\":3932:3977  require(cp.estActif, \"Contrepartie inactive\") */\n      tag_50\n      jumpi\n      mload(0x40)\n      0x08c379a000000000000000000000000000000000000000000000000000000000\n      dup2\n      mstore\n      0x04\n      add\n      tag_51\n      swap1\n      tag_52\n      jump\t// in\n    tag_51:\n      mload(0x40)\n      dup1\n      swap2\n      sub\n      swap1\n      revert\n    tag_50:\n        /* \".git/Risk/Contrepartie.sol\":4016:4017  0 */\n      0x00\n        /* \".git/Risk/Contrepartie.sol\":3992:3994  cp */\n      dup2\n        /* \".git/Risk/Contrepartie.sol\":3992:4013  cp.expositionCourante */\n      0x60\n      add\n      mload\n        /* \".git/Risk/Contrepartie.sol\":3992:4017  cp.expositionCourante > 0 */\n      gt\n        /* \".git/Risk/Contrepartie.sol\":3988:4098  if (cp.expositionCourante > 0) {... */\n      iszero\n      tag_53\n      jumpi\n        /* \".git/Risk/Contrepartie.sol\":4065:4067  cp */\n      dup1\n        /* \".git/Risk/Contrepartie.sol\":4065:4086  cp.expositionCourante */\n      0x60\n      add\n      mload\n        /* \".git/Risk/Contrepartie.sol\":4058:4061  100 */\n      0x64\n        /* \".git/Risk/Contrepartie.sol\":4042:4044  cp */\n      dup3\n        /* \".git/Risk/Contrepartie.sol\":4042:4055  cp.collateral */\n      0x80\n      add\n      mload\n        /* \".git/Risk/Contrepartie.sol\":4042:4061  cp.collateral * 100 */\n      tag_54\n      swap2\n      swap1\n      tag_55\n      jump\t// in\n    tag_54:\n        /* \".git/Risk/Contrepartie.sol\":4041:4086  (cp.collateral * 100) / cp.expositionCourante */\n      tag_56\n      swap2\n      swap1\n      tag_57\n      jump\t// in\n    tag_56:\n        /* \".git/Risk/Contrepartie.sol\":4034:4086  return (cp.collateral * 100) / cp.expositionCourante */\n      swap2\n      pop\n      pop\n      jump(tag_49)\n        /* \".git/Risk/Contrepartie.sol\":3988:4098  if (cp.expositionCourante > 0) {... */\n    tag_53:\n        /* \".git/Risk/Contrepartie.sol\":4115:4116  0 */\n      0x00\n        /* \".git/Risk/Contrepartie.sol\":4108:4116  return 0 */\n      swap2\n      pop\n      pop\n        /* \".git/Risk/Contrepartie.sol\":3771:4124  function calculerRatioCouverture(address _portefeuille) public view returns (uint256) {... */\n    tag_49:\n      swap2\n      swap1\n      pop\n      jump\t// out\n        /* \".git/Risk/Contrepartie.sol\":2942:3763  function mettreAJourExposition(address _portefeuille, uint256 _exposition) public {... */\n    tag_22:\n        /* \".git/Risk/Contrepartie.sol\":3043:3056  contreparties */\n      0x00\n        /* \".git/Risk/Contrepartie.sol\":3043:3071  contreparties[_portefeuille] */\n      dup1\n        /* \".git/Risk/Contrepartie.sol\":3057:3070  _portefeuille */\n      dup4\n        /* \".git/Risk/Contrepartie.sol\":3043:3071  contreparties[_portefeuille] */\n      0xffffffffffffffffffffffffffffffffffffffff\n      and\n      0xffffffffffffffffffffffffffffffffffffffff\n      and\n      dup2\n      mstore\n      0x20\n      add\n      swap1\n      dup2\n      mstore\n      0x20\n      add\n      0x00\n      keccak256\n        /* \".git/Risk/Contrepartie.sol\":3043:3080  contreparties[_portefeuille].estActif */\n      0x05\n      add\n      0x00\n      swap1\n      sload\n      swap1\n      0x0100\n      exp\n      swap1\n      div\n      0xff\n      and\n        /* \".git/Risk/Contrepartie.sol\":3035:3106  require(contreparties[_portefeuille].estActif, \"Contrepartie inactive\") */\n      tag_59\n      jumpi\n      mload(0x40)\n      0x08c379a000000000000000000000000000000000000000000000000000000000\n      dup2\n      mstore\n      0x04\n      add\n      tag_60\n      swap1\n      tag_52\n      jump\t// in\n    tag_60:\n      mload(0x40)\n      dup1\n      swap2\n      sub\n      swap1\n      revert\n    tag_59:\n        /* \".git/Risk/Contrepartie.sol\":3140:3153  contreparties */\n      0x00\n        /* \".git/Risk/Contrepartie.sol\":3140:3168  contreparties[_portefeuille] */\n      dup1\n        /* \".git/Risk/Contrepartie.sol\":3154:3167  _portefeuille */\n      dup4\n        /* \".git/Risk/Contrepartie.sol\":3140:3168  contreparties[_portefeuille] */\n      0xffffffffffffffffffffffffffffffffffffffff\n      and\n      0xffffffffffffffffffffffffffffffffffffffff\n      and\n      dup2\n      mstore\n      0x20\n      add\n      swap1\n      dup2\n      mstore\n      0x20\n      add\n      0x00\n      keccak256\n        /* \".git/Risk/Contrepartie.sol\":3140:3185  contreparties[_portefeuille].limiteExposition */\n      0x02\n      add\n      sload\n        /* \".git/Risk/Contrepartie.sol\":3125:3136  _exposition */\n      dup2\n        /* \".git/Risk/Contrepartie.sol\":3125:3185  _exposition <= contreparties[_portefeuille].limiteExposition */\n      gt\n      iszero\n        /* \".git/Risk/Contrepartie.sol\":3117:3228  require(_exposition <= contreparties[_portefeuille].limiteExposition, \"Exposition depasse la limite autorisee\") */\n      tag_61\n      jumpi\n      mload(0x40)\n      0x08c379a000000000000000000000000000000000000000000000000000000000\n      dup2\n      mstore\n      0x04\n      add\n      tag_62\n      swap1\n      tag_63\n      jump\t// in\n    tag_62:\n      mload(0x40)\n      dup1\n      swap2\n      sub\n      swap1\n      revert\n    tag_61:\n        /* \".git/Risk/Contrepartie.sol\":3241:3264  Contrepartie storage cp */\n      0x00\n        /* \".git/Risk/Contrepartie.sol\":3267:3280  contreparties */\n      dup1\n        /* \".git/Risk/Contrepartie.sol\":3267:3295  contreparties[_portefeuille] */\n      0x00\n        /* \".git/Risk/Contrepartie.sol\":3281:3294  _portefeuille */\n      dup5\n        /* \".git/Risk/Contrepartie.sol\":3267:3295  contreparties[_portefeuille] */\n      0xffffffffffffffffffffffffffffffffffffffff\n      and\n      0xffffffffffffffffffffffffffffffffffffffff\n      and\n      dup2\n      mstore\n      0x20\n      add\n      swap1\n      dup2\n      mstore\n      0x20\n      add\n      0x00\n      keccak256\n        /* \".git/Risk/Contrepartie.sol\":3241:3295  Contrepartie storage cp = contreparties[_portefeuille] */\n      swap1\n      pop\n        /* \".git/Risk/Contrepartie.sol\":3411:3422  _exposition */\n      dup2\n        /* \".git/Risk/Contrepartie.sol\":3387:3389  cp */\n      dup2\n        /* \".git/Risk/Contrepartie.sol\":3387:3408  cp.expositionCourante */\n      0x03\n      add\n      sload\n        /* \".git/Risk/Contrepartie.sol\":3371:3384  totalExposure */\n      sload(0x01)\n        /* \".git/Risk/Contrepartie.sol\":3371:3408  totalExposure - cp.expositionCourante */\n      tag_64\n      swap2\n      swap1\n      tag_65\n      jump\t// in\n    tag_64:\n        /* \".git/Risk/Contrepartie.sol\":3371:3422  totalExposure - cp.expositionCourante + _exposition */\n      tag_66\n      swap2\n      swap1\n      tag_67\n      jump\t// in\n    tag_66:\n        /* \".git/Risk/Contrepartie.sol\":3355:3368  totalExposure */\n      0x01\n        /* \".git/Risk/Contrepartie.sol\":3355:3422  totalExposure = totalExposure - cp.expositionCourante + _exposition */\n      dup2\n      swap1\n      sstore\n      pop\n        /* \".git/Risk/Contrepartie.sol\":3459:3470  _exposition */\n      dup2\n        /* \".git/Risk/Contrepartie.sol\":3435:3437  cp */\n      dup2\n        /* \".git/Risk/Contrepartie.sol\":3435:3456  cp.expositionCourante */\n      0x03\n      add\n        /* \".git/Risk/Contrepartie.sol\":3435:3470  cp.expositionCourante = _exposition */\n      dup2\n      swap1\n      sstore\n      pop\n        /* \".git/Risk/Contrepartie.sol\":3511:3513  cp */\n      dup1\n        /* \".git/Risk/Contrepartie.sol\":3511:3530  cp.limiteExposition */\n      0x02\n      add\n      sload\n        /* \".git/Risk/Contrepartie.sol\":3487:3489  cp */\n      dup2\n        /* \".git/Risk/Contrepartie.sol\":3487:3508  cp.expositionCourante */\n      0x03\n      add\n      sload\n        /* \".git/Risk/Contrepartie.sol\":3487:3530  cp.expositionCourante > cp.limiteExposition */\n      gt\n        /* \".git/Risk/Contrepartie.sol\":3483:3756  if (cp.expositionCourante > cp.limiteExposition) {... */\n      iszero\n      tag_68\n      jumpi\n        /* \".git/Risk/Contrepartie.sol\":3567:3580  _portefeuille */\n      dup3\n        /* \".git/Risk/Contrepartie.sol\":3552:3642  LimiteDepassee(_portefeuille, cp.expositionCourante, cp.limiteExposition, block.timestamp) */\n      0xffffffffffffffffffffffffffffffffffffffff\n      and\n      0xb857fb6cae42949c03cf586273bcaeada47b4819c5d68f8b91fd43393af83896\n        /* \".git/Risk/Contrepartie.sol\":3582:3584  cp */\n      dup3\n        /* \".git/Risk/Contrepartie.sol\":3582:3603  cp.expositionCourante */\n      0x03\n      add\n      sload\n        /* \".git/Risk/Contrepartie.sol\":3605:3607  cp */\n      dup4\n        /* \".git/Risk/Contrepartie.sol\":3605:3624  cp.limiteExposition */\n      0x02\n      add\n      sload\n        /* \".git/Risk/Contrepartie.sol\":3626:3641  block.timestamp */\n      timestamp\n        /* \".git/Risk/Contrepartie.sol\":3552:3642  LimiteDepassee(_portefeuille, cp.expositionCourante, cp.limiteExposition, block.timestamp) */\n      mload(0x40)\n      tag_69\n      swap4\n      swap3\n      swap2\n      swap1\n      tag_70\n      jump\t// in\n    tag_69:\n      mload(0x40)\n      dup1\n      swap2\n      sub\n      swap1\n      log2\n        /* \".git/Risk/Contrepartie.sol\":3483:3756  if (cp.expositionCourante > cp.limiteExposition) {... */\n      jump(tag_71)\n    tag_68:\n        /* \".git/Risk/Contrepartie.sol\":3700:3713  _portefeuille */\n      dup3\n        /* \".git/Risk/Contrepartie.sol\":3680:3744  ExpositionMiseAJour(_portefeuille, _exposition, block.timestamp) */\n      0xffffffffffffffffffffffffffffffffffffffff\n      and\n      0x1c7018925c6453dc3925809f94085f519b73f3fba1c0a19d41b8f936ca523fa8\n        /* \".git/Risk/Contrepartie.sol\":3715:3726  _exposition */\n      dup4\n        /* \".git/Risk/Contrepartie.sol\":3728:3743  block.timestamp */\n      timestamp\n        /* \".git/Risk/Contrepartie.sol\":3680:3744  ExpositionMiseAJour(_portefeuille, _exposition, block.timestamp) */\n      mload(0x40)\n      tag_72\n      swap3\n      swap2\n      swap1\n      tag_73\n      jump\t// in\n    tag_72:\n      mload(0x40)\n      dup1\n      swap2\n      sub\n      swap1\n      log2\n        /* \".git/Risk/Contrepartie.sol\":3483:3756  if (cp.expositionCourante > cp.limiteExposition) {... */\n    tag_71:\n        /* \".git/Risk/Contrepartie.sol\":3024:3763  {... */\n      pop\n        /* \".git/Risk/Contrepartie.sol\":2942:3763  function mettreAJourExposition(address _portefeuille, uint256 _exposition) public {... */\n      pop\n      pop\n      jump\t// out\n        /* \".git/Risk/Contrepartie.sol\":770:823  mapping(address => Contrepartie) public contreparties */\n    tag_25:\n      mstore(0x20, 0x00)\n      dup1\n      0x00\n      mstore\n      keccak256(0x00, 0x40)\n      0x00\n      swap2\n      pop\n      swap1\n      pop\n      dup1\n      0x00\n      add\n      0x00\n      swap1\n      sload\n      swap1\n      0x0100\n      exp\n      swap1\n      div\n      0xffffffffffffffffffffffffffffffffffffffff\n      and\n      swap1\n      dup1\n      0x01\n      add\n      sload\n      swap1\n      dup1\n      0x02\n      add\n      sload\n      swap1\n      dup1\n      0x03\n      add\n      sload\n      swap1\n      dup1\n      0x04\n      add\n      sload\n      swap1\n      dup1\n      0x05\n      add\n      0x00\n      swap1\n      sload\n      swap1\n      0x0100\n      exp\n      swap1\n      div\n      0xff\n      and\n      swap1\n      pop\n      dup7\n      jump\t// out\n        /* \".git/Risk/Contrepartie.sol\":4132:4850  function calculerScoreRisque(address _portefeuille) public view returns (uint256) {... */\n    tag_30:\n        /* \".git/Risk/Contrepartie.sol\":4205:4212  uint256 */\n      0x00\n        /* \".git/Risk/Contrepartie.sol\":4233:4246  contreparties */\n      dup1\n        /* \".git/Risk/Contrepartie.sol\":4233:4261  contreparties[_portefeuille] */\n      0x00\n        /* \".git/Risk/Contrepartie.sol\":4247:4260  _portefeuille */\n      dup4\n        /* \".git/Risk/Contrepartie.sol\":4233:4261  contreparties[_portefeuille] */\n      0xffffffffffffffffffffffffffffffffffffffff\n      and\n      0xffffffffffffffffffffffffffffffffffffffff\n      and\n      dup2\n      mstore\n      0x20\n      add\n      swap1\n      dup2\n      mstore\n      0x20\n      add\n      0x00\n      keccak256\n        /* \".git/Risk/Contrepartie.sol\":4233:4270  contreparties[_portefeuille].estActif */\n      0x05\n      add\n      0x00\n      swap1\n      sload\n      swap1\n      0x0100\n      exp\n      swap1\n      div\n      0xff\n      and\n        /* \".git/Risk/Contrepartie.sol\":4225:4296  require(contreparties[_portefeuille].estActif, \"Contrepartie inactive\") */\n      tag_75\n      jumpi\n      mload(0x40)\n      0x08c379a000000000000000000000000000000000000000000000000000000000\n      dup2\n      mstore\n      0x04\n      add\n      tag_76\n      swap1\n      tag_52\n      jump\t// in\n    tag_76:\n      mload(0x40)\n      dup1\n      swap2\n      sub\n      swap1\n      revert\n    tag_75:\n        /* \".git/Risk/Contrepartie.sol\":4309:4331  Contrepartie memory cp */\n      0x00\n        /* \".git/Risk/Contrepartie.sol\":4334:4347  contreparties */\n      dup1\n        /* \".git/Risk/Contrepartie.sol\":4334:4362  contreparties[_portefeuille] */\n      0x00\n        /* \".git/Risk/Contrepartie.sol\":4348:4361  _portefeuille */\n      dup5\n        /* \".git/Risk/Contrepartie.sol\":4334:4362  contreparties[_portefeuille] */\n      0xffffffffffffffffffffffffffffffffffffffff\n      and\n      0xffffffffffffffffffffffffffffffffffffffff\n      and\n      dup2\n      mstore\n      0x20\n      add\n      swap1\n      dup2\n      mstore\n      0x20\n      add\n      0x00\n      keccak256\n        /* \".git/Risk/Contrepartie.sol\":4309:4362  Contrepartie memory cp = contreparties[_portefeuille] */\n      mload(0x40)\n      dup1\n      0xc0\n      add\n      0x40\n      mstore\n      swap1\n      dup2\n      0x00\n      dup3\n      add\n      0x00\n      swap1\n      sload\n      swap1\n      0x0100\n      exp\n      swap1\n      div\n      0xffffffffffffffffffffffffffffffffffffffff\n      and\n      0xffffffffffffffffffffffffffffffffffffffff\n      and\n      0xffffffffffffffffffffffffffffffffffffffff\n      and\n      dup2\n      mstore\n      0x20\n      add\n      0x01\n      dup3\n      add\n      sload\n      dup2\n      mstore\n      0x20\n      add\n      0x02\n      dup3\n      add\n      sload\n      dup2\n      mstore\n      0x20\n      add\n      0x03\n      dup3\n      add\n      sload\n      dup2\n      mstore\n      0x20\n      add\n      0x04\n      dup3\n      add\n      sload\n      dup2\n      mstore\n      0x20\n      add\n      0x05\n      dup3\n      add\n      0x00\n      swap1\n      sload\n      swap1\n      0x0100\n      exp\n      swap1\n      div\n      0xff\n      and\n      iszero\n      iszero\n      iszero\n      iszero\n      dup2\n      mstore\n      pop\n      pop\n      swap1\n      pop\n        /* \".git/Risk/Contrepartie.sol\":4432:4433  0 */\n      0x00\n        /* \".git/Risk/Contrepartie.sol\":4409:4411  cp */\n      dup2\n        /* \".git/Risk/Contrepartie.sol\":4409:4428  cp.limiteExposition */\n      0x40\n      add\n      mload\n        /* \".git/Risk/Contrepartie.sol\":4409:4433  cp.limiteExposition == 0 */\n      eq\n        /* \".git/Risk/Contrepartie.sol\":4409:4456  cp.limiteExposition == 0 || cp.scoreCredit == 0 */\n      dup1\n      tag_77\n      jumpi\n      pop\n        /* \".git/Risk/Contrepartie.sol\":4455:4456  0 */\n      0x00\n        /* \".git/Risk/Contrepartie.sol\":4437:4439  cp */\n      dup2\n        /* \".git/Risk/Contrepartie.sol\":4437:4451  cp.scoreCredit */\n      0x20\n      add\n      mload\n        /* \".git/Risk/Contrepartie.sol\":4437:4456  cp.scoreCredit == 0 */\n      eq\n        /* \".git/Risk/Contrepartie.sol\":4409:4456  cp.limiteExposition == 0 || cp.scoreCredit == 0 */\n    tag_77:\n        /* \".git/Risk/Contrepartie.sol\":4405:4527  if (cp.limiteExposition == 0 || cp.scoreCredit == 0) {... */\n      iszero\n      tag_78\n      jumpi\n        /* \".git/Risk/Contrepartie.sol\":4480:4481  0 */\n      0x00\n        /* \".git/Risk/Contrepartie.sol\":4473:4481  return 0 */\n      swap2\n      pop\n      pop\n      jump(tag_74)\n        /* \".git/Risk/Contrepartie.sol\":4405:4527  if (cp.limiteExposition == 0 || cp.scoreCredit == 0) {... */\n    tag_78:\n        /* \".git/Risk/Contrepartie.sol\":4574:4591  uint256 firstPart */\n      0x00\n        /* \".git/Risk/Contrepartie.sol\":4626:4628  cp */\n      dup2\n        /* \".git/Risk/Contrepartie.sol\":4626:4645  cp.limiteExposition */\n      0x40\n      add\n      mload\n        /* \".git/Risk/Contrepartie.sol\":4619:4622  100 */\n      0x64\n        /* \".git/Risk/Contrepartie.sol\":4595:4597  cp */\n      dup4\n        /* \".git/Risk/Contrepartie.sol\":4595:4616  cp.expositionCourante */\n      0x60\n      add\n      mload\n        /* \".git/Risk/Contrepartie.sol\":4595:4622  cp.expositionCourante * 100 */\n      tag_79\n      swap2\n      swap1\n      tag_55\n      jump\t// in\n    tag_79:\n        /* \".git/Risk/Contrepartie.sol\":4594:4645  (cp.expositionCourante * 100) / cp.limiteExposition */\n      tag_80\n      swap2\n      swap1\n      tag_57\n      jump\t// in\n    tag_80:\n        /* \".git/Risk/Contrepartie.sol\":4574:4645  uint256 firstPart = (cp.expositionCourante * 100) / cp.limiteExposition */\n      swap1\n      pop\n        /* \".git/Risk/Contrepartie.sol\":4673:4691  uint256 secondPart */\n      0x00\n        /* \".git/Risk/Contrepartie.sol\":4700:4702  cp */\n      dup3\n        /* \".git/Risk/Contrepartie.sol\":4700:4714  cp.scoreCredit */\n      0x20\n      add\n      mload\n        /* \".git/Risk/Contrepartie.sol\":4694:4697  100 */\n      0x64\n        /* \".git/Risk/Contrepartie.sol\":4694:4714  100 / cp.scoreCredit */\n      tag_81\n      swap2\n      swap1\n      tag_57\n      jump\t// in\n    tag_81:\n        /* \".git/Risk/Contrepartie.sol\":4673:4714  uint256 secondPart = 100 / cp.scoreCredit */\n      swap1\n      pop\n        /* \".git/Risk/Contrepartie.sol\":4831:4841  secondPart */\n      dup1\n        /* \".git/Risk/Contrepartie.sol\":4819:4828  firstPart */\n      dup3\n        /* \".git/Risk/Contrepartie.sol\":4819:4841  firstPart * secondPart */\n      tag_82\n      swap2\n      swap1\n      tag_55\n      jump\t// in\n    tag_82:\n        /* \".git/Risk/Contrepartie.sol\":4811:4842  return (firstPart * secondPart) */\n      swap4\n      pop\n      pop\n      pop\n      pop\n        /* \".git/Risk/Contrepartie.sol\":4132:4850  function calculerScoreRisque(address _portefeuille) public view returns (uint256) {... */\n    tag_74:\n      swap2\n      swap1\n      pop\n      jump\t// out\n        /* \".git/Risk/Contrepartie.sol\":886:914  uint256 public totalExposure */\n    tag_33:\n      sload(0x01)\n      dup2\n      jump\t// out\n        /* \".git/Risk/Contrepartie.sol\":950:973  address public emetteur */\n    tag_36:\n      0x03\n      0x00\n      swap1\n      sload\n      swap1\n      0x0100\n      exp\n      swap1\n      div\n      0xffffffffffffffffffffffffffffffffffffffff\n      and\n      dup2\n      jump\t// out\n        /* \".git/Risk/Contrepartie.sol\":923:943  address public owner */\n    tag_40:\n      0x02\n      0x00\n      swap1\n      sload\n      swap1\n      0x0100\n      exp\n      swap1\n      div\n      0xffffffffffffffffffffffffffffffffffffffff\n      and\n      dup2\n      jump\t// out\n        /* \".git/Risk/Contrepartie.sol\":1803:2934  function ajouterContrepartie(... */\n    tag_45:\n        /* \".git/Risk/Contrepartie.sol\":1036:1041  owner */\n      0x02\n      0x00\n      swap1\n      sload\n      swap1\n      0x0100\n      exp\n      swap1\n      div\n      0xffffffffffffffffffffffffffffffffffffffff\n      and\n        /* \".git/Risk/Contrepartie.sol\":1022:1041  msg.sender == owner */\n      0xffffffffffffffffffffffffffffffffffffffff\n      and\n        /* \".git/Risk/Contrepartie.sol\":1022:1032  msg.sender */\n      caller\n        /* \".git/Risk/Contrepartie.sol\":1022:1041  msg.sender == owner */\n      0xffffffffffffffffffffffffffffffffffffffff\n      and\n      eq\n        /* \".git/Risk/Contrepartie.sol\":1014:1077  require(msg.sender == owner, \"Acces restreint au proprietaire\") */\n      tag_84\n      jumpi\n      mload(0x40)\n      0x08c379a000000000000000000000000000000000000000000000000000000000\n      dup2\n      mstore\n      0x04\n      add\n      tag_85\n      swap1\n      tag_86\n      jump\t// in\n    tag_85:\n      mload(0x40)\n      dup1\n      swap2\n      sub\n      swap1\n      revert\n    tag_84:\n        /* \".git/Risk/Contrepartie.sol\":2067:2068  0 */\n      0x00\n        /* \".git/Risk/Contrepartie.sol\":2042:2069  _portefeuille != address(0) */\n      0xffffffffffffffffffffffffffffffffffffffff\n      and\n        /* \".git/Risk/Contrepartie.sol\":2042:2055  _portefeuille */\n      dup6\n        /* \".git/Risk/Contrepartie.sol\":2042:2069  _portefeuille != address(0) */\n      0xffffffffffffffffffffffffffffffffffffffff\n      and\n      sub\n        /* \".git/Risk/Contrepartie.sol\":2034:2090  require(_portefeuille != address(0), \"Adresse invalide\") */\n      tag_88\n      jumpi\n      mload(0x40)\n      0x08c379a000000000000000000000000000000000000000000000000000000000\n      dup2\n      mstore\n      0x04\n      add\n      tag_89\n      swap1\n      tag_90\n      jump\t// in\n    tag_89:\n      mload(0x40)\n      dup1\n      swap2\n      sub\n      swap1\n      revert\n    tag_88:\n        /* \".git/Risk/Contrepartie.sol\":2124:2125  0 */\n      0x00\n        /* \".git/Risk/Contrepartie.sol\":2109:2121  _scoreCredit */\n      dup5\n        /* \".git/Risk/Contrepartie.sol\":2109:2125  _scoreCredit > 0 */\n      gt\n        /* \".git/Risk/Contrepartie.sol\":2101:2154  require(_scoreCredit > 0, \"Score de credit invalide\") */\n      tag_91\n      jumpi\n      mload(0x40)\n      0x08c379a000000000000000000000000000000000000000000000000000000000\n      dup2\n      mstore\n      0x04\n      add\n      tag_92\n      swap1\n      tag_93\n      jump\t// in\n    tag_92:\n      mload(0x40)\n      dup1\n      swap2\n      sub\n      swap1\n      revert\n    tag_91:\n        /* \".git/Risk/Contrepartie.sol\":2193:2194  0 */\n      0x00\n        /* \".git/Risk/Contrepartie.sol\":2173:2190  _limiteExposition */\n      dup4\n        /* \".git/Risk/Contrepartie.sol\":2173:2194  _limiteExposition > 0 */\n      gt\n        /* \".git/Risk/Contrepartie.sol\":2165:2227  require(_limiteExposition > 0, \"Limite d'exposition invalide\") */\n      tag_94\n      jumpi\n      mload(0x40)\n      0x08c379a000000000000000000000000000000000000000000000000000000000\n      dup2\n      mstore\n      0x04\n      add\n      tag_95\n      swap1\n      tag_96\n      jump\t// in\n    tag_95:\n      mload(0x40)\n      dup1\n      swap2\n      sub\n      swap1\n      revert\n    tag_94:\n        /* \".git/Risk/Contrepartie.sol\":2269:2286  _limiteExposition */\n      dup3\n        /* \".git/Risk/Contrepartie.sol\":2246:2265  _expositionCourante */\n      dup3\n        /* \".git/Risk/Contrepartie.sol\":2246:2286  _expositionCourante <= _limiteExposition */\n      gt\n      iszero\n        /* \".git/Risk/Contrepartie.sol\":2238:2328  require(_expositionCourante <= _limiteExposition, \"Exposition courante depasse la limite\") */\n      tag_97\n      jumpi\n      mload(0x40)\n      0x08c379a000000000000000000000000000000000000000000000000000000000\n      dup2\n      mstore\n      0x04\n      add\n      tag_98\n      swap1\n      tag_99\n      jump\t// in\n    tag_98:\n      mload(0x40)\n      dup1\n      swap2\n      sub\n      swap1\n      revert\n    tag_97:\n        /* \".git/Risk/Contrepartie.sol\":2348:2361  contreparties */\n      0x00\n        /* \".git/Risk/Contrepartie.sol\":2348:2376  contreparties[_portefeuille] */\n      dup1\n        /* \".git/Risk/Contrepartie.sol\":2362:2375  _portefeuille */\n      dup7\n        /* \".git/Risk/Contrepartie.sol\":2348:2376  contreparties[_portefeuille] */\n      0xffffffffffffffffffffffffffffffffffffffff\n      and\n      0xffffffffffffffffffffffffffffffffffffffff\n      and\n      dup2\n      mstore\n      0x20\n      add\n      swap1\n      dup2\n      mstore\n      0x20\n      add\n      0x00\n      keccak256\n        /* \".git/Risk/Contrepartie.sol\":2348:2385  contreparties[_portefeuille].estActif */\n      0x05\n      add\n      0x00\n      swap1\n      sload\n      swap1\n      0x0100\n      exp\n      swap1\n      div\n      0xff\n      and\n        /* \".git/Risk/Contrepartie.sol\":2347:2385  !contreparties[_portefeuille].estActif */\n      iszero\n        /* \".git/Risk/Contrepartie.sol\":2339:2419  require(!contreparties[_portefeuille].estActif, \"Contrepartie deja enregistree\") */\n      tag_100\n      jumpi\n      mload(0x40)\n      0x08c379a000000000000000000000000000000000000000000000000000000000\n      dup2\n      mstore\n      0x04\n      add\n      tag_101\n      swap1\n      tag_102\n      jump\t// in\n    tag_101:\n      mload(0x40)\n      dup1\n      swap2\n      sub\n      swap1\n      revert\n    tag_100:\n        /* \".git/Risk/Contrepartie.sol\":2463:2741  Contrepartie({... */\n      mload(0x40)\n      dup1\n      0xc0\n      add\n      0x40\n      mstore\n      dup1\n        /* \".git/Risk/Contrepartie.sol\":2505:2518  _portefeuille */\n      dup7\n        /* \".git/Risk/Contrepartie.sol\":2463:2741  Contrepartie({... */\n      0xffffffffffffffffffffffffffffffffffffffff\n      and\n      dup2\n      mstore\n      0x20\n      add\n        /* \".git/Risk/Contrepartie.sol\":2546:2558  _scoreCredit */\n      dup6\n        /* \".git/Risk/Contrepartie.sol\":2463:2741  Contrepartie({... */\n      dup2\n      mstore\n      0x20\n      add\n        /* \".git/Risk/Contrepartie.sol\":2591:2608  _limiteExposition */\n      dup5\n        /* \".git/Risk/Contrepartie.sol\":2463:2741  Contrepartie({... */\n      dup2\n      mstore\n      0x20\n      add\n        /* \".git/Risk/Contrepartie.sol\":2643:2662  _expositionCourante */\n      dup4\n        /* \".git/Risk/Contrepartie.sol\":2463:2741  Contrepartie({... */\n      dup2\n      mstore\n      0x20\n      add\n        /* \".git/Risk/Contrepartie.sol\":2689:2700  _collateral */\n      dup3\n        /* \".git/Risk/Contrepartie.sol\":2463:2741  Contrepartie({... */\n      dup2\n      mstore\n      0x20\n      add\n        /* \".git/Risk/Contrepartie.sol\":2725:2729  true */\n      0x01\n        /* \".git/Risk/Contrepartie.sol\":2463:2741  Contrepartie({... */\n      iszero\n      iszero\n      dup2\n      mstore\n      pop\n        /* \".git/Risk/Contrepartie.sol\":2432:2445  contreparties */\n      0x00\n        /* \".git/Risk/Contrepartie.sol\":2432:2460  contreparties[_portefeuille] */\n      dup1\n        /* \".git/Risk/Contrepartie.sol\":2446:2459  _portefeuille */\n      dup8\n        /* \".git/Risk/Contrepartie.sol\":2432:2460  contreparties[_portefeuille] */\n      0xffffffffffffffffffffffffffffffffffffffff\n      and\n      0xffffffffffffffffffffffffffffffffffffffff\n      and\n      dup2\n      mstore\n      0x20\n      add\n      swap1\n      dup2\n      mstore\n      0x20\n      add\n      0x00\n      keccak256\n        /* \".git/Risk/Contrepartie.sol\":2432:2741  contreparties[_portefeuille] = Contrepartie({... */\n      0x00\n      dup3\n      add\n      mload\n      dup2\n      0x00\n      add\n      exp(0x0100, 0x00)\n      dup2\n      sload\n      dup2\n      0xffffffffffffffffffffffffffffffffffffffff\n      mul\n      not\n      and\n      swap1\n      dup4\n      0xffffffffffffffffffffffffffffffffffffffff\n      and\n      mul\n      or\n      swap1\n      sstore\n      pop\n      0x20\n      dup3\n      add\n      mload\n      dup2\n      0x01\n      add\n      sstore\n      0x40\n      dup3\n      add\n      mload\n      dup2\n      0x02\n      add\n      sstore\n      0x60\n      dup3\n      add\n      mload\n      dup2\n      0x03\n      add\n      sstore\n      0x80\n      dup3\n      add\n      mload\n      dup2\n      0x04\n      add\n      sstore\n      0xa0\n      dup3\n      add\n      mload\n      dup2\n      0x05\n      add\n      exp(0x0100, 0x00)\n      dup2\n      sload\n      dup2\n      0xff\n      mul\n      not\n      and\n      swap1\n      dup4\n      iszero\n      iszero\n      mul\n      or\n      swap1\n      sstore\n      pop\n      swap1\n      pop\n      pop\n        /* \".git/Risk/Contrepartie.sol\":2836:2855  _expositionCourante */\n      dup2\n        /* \".git/Risk/Contrepartie.sol\":2819:2832  totalExposure */\n      0x01\n      0x00\n        /* \".git/Risk/Contrepartie.sol\":2819:2855  totalExposure += _expositionCourante */\n      dup3\n      dup3\n      sload\n      tag_103\n      swap2\n      swap1\n      tag_67\n      jump\t// in\n    tag_103:\n      swap3\n      pop\n      pop\n      dup2\n      swap1\n      sstore\n      pop\n        /* \".git/Risk/Contrepartie.sol\":2893:2906  _portefeuille */\n      dup5\n        /* \".git/Risk/Contrepartie.sol\":2873:2926  ContrepartieAjoutee(_portefeuille, _limiteExposition) */\n      0xffffffffffffffffffffffffffffffffffffffff\n      and\n      0x747a12c5b34abe212a3a26b67b9a8edf3ceb6bd68207c9f6c11a5161432e1614\n        /* \".git/Risk/Contrepartie.sol\":2908:2925  _limiteExposition */\n      dup5\n        /* \".git/Risk/Contrepartie.sol\":2873:2926  ContrepartieAjoutee(_portefeuille, _limiteExposition) */\n      mload(0x40)\n      tag_104\n      swap2\n      swap1\n      tag_18\n      jump\t// in\n    tag_104:\n      mload(0x40)\n      dup1\n      swap2\n      sub\n      swap1\n      log2\n        /* \".git/Risk/Contrepartie.sol\":1803:2934  function ajouterContrepartie(... */\n      pop\n      pop\n      pop\n      pop\n      pop\n      jump\t// out\n        /* \".git/Risk/Contrepartie.sol\":1595:1795  function modifierEmetteur(address _nouvelEmetteur) public onlyOwner {... */\n    tag_48:\n        /* \".git/Risk/Contrepartie.sol\":1036:1041  owner */\n      0x02\n      0x00\n      swap1\n      sload\n      swap1\n      0x0100\n      exp\n      swap1\n      div\n      0xffffffffffffffffffffffffffffffffffffffff\n      and\n        /* \".git/Risk/Contrepartie.sol\":1022:1041  msg.sender == owner */\n      0xffffffffffffffffffffffffffffffffffffffff\n      and\n        /* \".git/Risk/Contrepartie.sol\":1022:1032  msg.sender */\n      caller\n        /* \".git/Risk/Contrepartie.sol\":1022:1041  msg.sender == owner */\n      0xffffffffffffffffffffffffffffffffffffffff\n      and\n      eq\n        /* \".git/Risk/Contrepartie.sol\":1014:1077  require(msg.sender == owner, \"Acces restreint au proprietaire\") */\n      tag_106\n      jumpi\n      mload(0x40)\n      0x08c379a000000000000000000000000000000000000000000000000000000000\n      dup2\n      mstore\n      0x04\n      add\n      tag_107\n      swap1\n      tag_86\n      jump\t// in\n    tag_107:\n      mload(0x40)\n      dup1\n      swap2\n      sub\n      swap1\n      revert\n    tag_106:\n        /* \".git/Risk/Contrepartie.sol\":1709:1710  0 */\n      0x00\n        /* \".git/Risk/Contrepartie.sol\":1682:1711  _nouvelEmetteur != address(0) */\n      0xffffffffffffffffffffffffffffffffffffffff\n      and\n        /* \".git/Risk/Contrepartie.sol\":1682:1697  _nouvelEmetteur */\n      dup2\n        /* \".git/Risk/Contrepartie.sol\":1682:1711  _nouvelEmetteur != address(0) */\n      0xffffffffffffffffffffffffffffffffffffffff\n      and\n      sub\n        /* \".git/Risk/Contrepartie.sol\":1674:1750  require(_nouvelEmetteur != address(0), \"Nouvelle adresse emetteur invalide\") */\n      tag_109\n      jumpi\n      mload(0x40)\n      0x08c379a000000000000000000000000000000000000000000000000000000000\n      dup2\n      mstore\n      0x04\n      add\n      tag_110\n      swap1\n      tag_111\n      jump\t// in\n    tag_110:\n      mload(0x40)\n      dup1\n      swap2\n      sub\n      swap1\n      revert\n    tag_109:\n        /* \".git/Risk/Contrepartie.sol\":1772:1787  _nouvelEmetteur */\n      dup1\n        /* \".git/Risk/Contrepartie.sol\":1761:1769  emetteur */\n      0x03\n      0x00\n        /* \".git/Risk/Contrepartie.sol\":1761:1787  emetteur = _nouvelEmetteur */\n      0x0100\n      exp\n      dup2\n      sload\n      dup2\n      0xffffffffffffffffffffffffffffffffffffffff\n      mul\n      not\n      and\n      swap1\n      dup4\n      0xffffffffffffffffffffffffffffffffffffffff\n      and\n      mul\n      or\n      swap1\n      sstore\n      pop\n        /* \".git/Risk/Contrepartie.sol\":1595:1795  function modifierEmetteur(address _nouvelEmetteur) public onlyOwner {... */\n      pop\n      jump\t// out\n        /* \"#utility.yul\":88:205   */\n    tag_113:\n        /* \"#utility.yul\":197:198   */\n      0x00\n        /* \"#utility.yul\":194:195   */\n      dup1\n        /* \"#utility.yul\":187:199   */\n      revert\n        /* \"#utility.yul\":334:460   */\n    tag_115:\n        /* \"#utility.yul\":371:378   */\n      0x00\n        /* \"#utility.yul\":411:453   */\n      0xffffffffffffffffffffffffffffffffffffffff\n        /* \"#utility.yul\":404:409   */\n      dup3\n        /* \"#utility.yul\":400:454   */\n      and\n        /* \"#utility.yul\":389:454   */\n      swap1\n      pop\n        /* \"#utility.yul\":334:460   */\n      swap2\n      swap1\n      pop\n      jump\t// out\n        /* \"#utility.yul\":466:562   */\n    tag_116:\n        /* \"#utility.yul\":503:510   */\n      0x00\n        /* \"#utility.yul\":532:556   */\n      tag_153\n        /* \"#utility.yul\":550:555   */\n      dup3\n        /* \"#utility.yul\":532:556   */\n      tag_115\n      jump\t// in\n    tag_153:\n        /* \"#utility.yul\":521:556   */\n      swap1\n      pop\n        /* \"#utility.yul\":466:562   */\n      swap2\n      swap1\n      pop\n      jump\t// out\n        /* \"#utility.yul\":568:690   */\n    tag_117:\n        /* \"#utility.yul\":641:665   */\n      tag_155\n        /* \"#utility.yul\":659:664   */\n      dup2\n        /* \"#utility.yul\":641:665   */\n      tag_116\n      jump\t// in\n    tag_155:\n        /* \"#utility.yul\":634:639   */\n      dup2\n        /* \"#utility.yul\":631:666   */\n      eq\n        /* \"#utility.yul\":621:684   */\n      tag_156\n      jumpi\n        /* \"#utility.yul\":680:681   */\n      0x00\n        /* \"#utility.yul\":677:678   */\n      dup1\n        /* \"#utility.yul\":670:682   */\n      revert\n        /* \"#utility.yul\":621:684   */\n    tag_156:\n        /* \"#utility.yul\":568:690   */\n      pop\n      jump\t// out\n        /* \"#utility.yul\":696:835   */\n    tag_118:\n        /* \"#utility.yul\":742:747   */\n      0x00\n        /* \"#utility.yul\":780:786   */\n      dup2\n        /* \"#utility.yul\":767:787   */\n      calldataload\n        /* \"#utility.yul\":758:787   */\n      swap1\n      pop\n        /* \"#utility.yul\":796:829   */\n      tag_158\n        /* \"#utility.yul\":823:828   */\n      dup2\n        /* \"#utility.yul\":796:829   */\n      tag_117\n      jump\t// in\n    tag_158:\n        /* \"#utility.yul\":696:835   */\n      swap3\n      swap2\n      pop\n      pop\n      jump\t// out\n        /* \"#utility.yul\":841:1170   */\n    tag_15:\n        /* \"#utility.yul\":900:906   */\n      0x00\n        /* \"#utility.yul\":949:951   */\n      0x20\n        /* \"#utility.yul\":937:946   */\n      dup3\n        /* \"#utility.yul\":928:935   */\n      dup5\n        /* \"#utility.yul\":924:947   */\n      sub\n        /* \"#utility.yul\":920:952   */\n      slt\n        /* \"#utility.yul\":917:1036   */\n      iszero\n      tag_160\n      jumpi\n        /* \"#utility.yul\":955:1034   */\n      tag_161\n      tag_113\n      jump\t// in\n    tag_161:\n        /* \"#utility.yul\":917:1036   */\n    tag_160:\n        /* \"#utility.yul\":1075:1076   */\n      0x00\n        /* \"#utility.yul\":1100:1153   */\n      tag_162\n        /* \"#utility.yul\":1145:1152   */\n      dup5\n        /* \"#utility.yul\":1136:1142   */\n      dup3\n        /* \"#utility.yul\":1125:1134   */\n      dup6\n        /* \"#utility.yul\":1121:1143   */\n      add\n        /* \"#utility.yul\":1100:1153   */\n      tag_118\n      jump\t// in\n    tag_162:\n        /* \"#utility.yul\":1090:1153   */\n      swap2\n      pop\n        /* \"#utility.yul\":1046:1163   */\n      pop\n        /* \"#utility.yul\":841:1170   */\n      swap3\n      swap2\n      pop\n      pop\n      jump\t// out\n        /* \"#utility.yul\":1176:1253   */\n    tag_119:\n        /* \"#utility.yul\":1213:1220   */\n      0x00\n        /* \"#utility.yul\":1242:1247   */\n      dup2\n        /* \"#utility.yul\":1231:1247   */\n      swap1\n      pop\n        /* \"#utility.yul\":1176:1253   */\n      swap2\n      swap1\n      pop\n      jump\t// out\n        /* \"#utility.yul\":1259:1377   */\n    tag_120:\n        /* \"#utility.yul\":1346:1370   */\n      tag_165\n        /* \"#utility.yul\":1364:1369   */\n      dup2\n        /* \"#utility.yul\":1346:1370   */\n      tag_119\n      jump\t// in\n    tag_165:\n        /* \"#utility.yul\":1341:1344   */\n      dup3\n        /* \"#utility.yul\":1334:1371   */\n      mstore\n        /* \"#utility.yul\":1259:1377   */\n      pop\n      pop\n      jump\t// out\n        /* \"#utility.yul\":1383:1605   */\n    tag_18:\n        /* \"#utility.yul\":1476:1480   */\n      0x00\n        /* \"#utility.yul\":1514:1516   */\n      0x20\n        /* \"#utility.yul\":1503:1512   */\n      dup3\n        /* \"#utility.yul\":1499:1517   */\n      add\n        /* \"#utility.yul\":1491:1517   */\n      swap1\n      pop\n        /* \"#utility.yul\":1527:1598   */\n      tag_167\n        /* \"#utility.yul\":1595:1596   */\n      0x00\n        /* \"#utility.yul\":1584:1593   */\n      dup4\n        /* \"#utility.yul\":1580:1597   */\n      add\n        /* \"#utility.yul\":1571:1577   */\n      dup5\n        /* \"#utility.yul\":1527:1598   */\n      tag_120\n      jump\t// in\n    tag_167:\n        /* \"#utility.yul\":1383:1605   */\n      swap3\n      swap2\n      pop\n      pop\n      jump\t// out\n        /* \"#utility.yul\":1611:1733   */\n    tag_121:\n        /* \"#utility.yul\":1684:1708   */\n      tag_169\n        /* \"#utility.yul\":1702:1707   */\n      dup2\n        /* \"#utility.yul\":1684:1708   */\n      tag_119\n      jump\t// in\n    tag_169:\n        /* \"#utility.yul\":1677:1682   */\n      dup2\n        /* \"#utility.yul\":1674:1709   */\n      eq\n        /* \"#utility.yul\":1664:1727   */\n      tag_170\n      jumpi\n        /* \"#utility.yul\":1723:1724   */\n      0x00\n        /* \"#utility.yul\":1720:1721   */\n      dup1\n        /* \"#utility.yul\":1713:1725   */\n      revert\n        /* \"#utility.yul\":1664:1727   */\n    tag_170:\n        /* \"#utility.yul\":1611:1733   */\n      pop\n      jump\t// out\n        /* \"#utility.yul\":1739:1878   */\n    tag_122:\n        /* \"#utility.yul\":1785:1790   */\n      0x00\n        /* \"#utility.yul\":1823:1829   */\n      dup2\n        /* \"#utility.yul\":1810:1830   */\n      calldataload\n        /* \"#utility.yul\":1801:1830   */\n      swap1\n      pop\n        /* \"#utility.yul\":1839:1872   */\n      tag_172\n        /* \"#utility.yul\":1866:1871   */\n      dup2\n        /* \"#utility.yul\":1839:1872   */\n      tag_121\n      jump\t// in\n    tag_172:\n        /* \"#utility.yul\":1739:1878   */\n      swap3\n      swap2\n      pop\n      pop\n      jump\t// out\n        /* \"#utility.yul\":1884:2358   */\n    tag_21:\n        /* \"#utility.yul\":1952:1958   */\n      0x00\n        /* \"#utility.yul\":1960:1966   */\n      dup1\n        /* \"#utility.yul\":2009:2011   */\n      0x40\n        /* \"#utility.yul\":1997:2006   */\n      dup4\n        /* \"#utility.yul\":1988:1995   */\n      dup6\n        /* \"#utility.yul\":1984:2007   */\n      sub\n        /* \"#utility.yul\":1980:2012   */\n      slt\n        /* \"#utility.yul\":1977:2096   */\n      iszero\n      tag_174\n      jumpi\n        /* \"#utility.yul\":2015:2094   */\n      tag_175\n      tag_113\n      jump\t// in\n    tag_175:\n        /* \"#utility.yul\":1977:2096   */\n    tag_174:\n        /* \"#utility.yul\":2135:2136   */\n      0x00\n        /* \"#utility.yul\":2160:2213   */\n      tag_176\n        /* \"#utility.yul\":2205:2212   */\n      dup6\n        /* \"#utility.yul\":2196:2202   */\n      dup3\n        /* \"#utility.yul\":2185:2194   */\n      dup7\n        /* \"#utility.yul\":2181:2203   */\n      add\n        /* \"#utility.yul\":2160:2213   */\n      tag_118\n      jump\t// in\n    tag_176:\n        /* \"#utility.yul\":2150:2213   */\n      swap3\n      pop\n        /* \"#utility.yul\":2106:2223   */\n      pop\n        /* \"#utility.yul\":2262:2264   */\n      0x20\n        /* \"#utility.yul\":2288:2341   */\n      tag_177\n        /* \"#utility.yul\":2333:2340   */\n      dup6\n        /* \"#utility.yul\":2324:2330   */\n      dup3\n        /* \"#utility.yul\":2313:2322   */\n      dup7\n        /* \"#utility.yul\":2309:2331   */\n      add\n        /* \"#utility.yul\":2288:2341   */\n      tag_122\n      jump\t// in\n    tag_177:\n        /* \"#utility.yul\":2278:2341   */\n      swap2\n      pop\n        /* \"#utility.yul\":2233:2351   */\n      pop\n        /* \"#utility.yul\":1884:2358   */\n      swap3\n      pop\n      swap3\n      swap1\n      pop\n      jump\t// out\n        /* \"#utility.yul\":2364:2482   */\n    tag_123:\n        /* \"#utility.yul\":2451:2475   */\n      tag_179\n        /* \"#utility.yul\":2469:2474   */\n      dup2\n        /* \"#utility.yul\":2451:2475   */\n      tag_116\n      jump\t// in\n    tag_179:\n        /* \"#utility.yul\":2446:2449   */\n      dup3\n        /* \"#utility.yul\":2439:2476   */\n      mstore\n        /* \"#utility.yul\":2364:2482   */\n      pop\n      pop\n      jump\t// out\n        /* \"#utility.yul\":2488:2578   */\n    tag_124:\n        /* \"#utility.yul\":2522:2529   */\n      0x00\n        /* \"#utility.yul\":2565:2570   */\n      dup2\n        /* \"#utility.yul\":2558:2571   */\n      iszero\n        /* \"#utility.yul\":2551:2572   */\n      iszero\n        /* \"#utility.yul\":2540:2572   */\n      swap1\n      pop\n        /* \"#utility.yul\":2488:2578   */\n      swap2\n      swap1\n      pop\n      jump\t// out\n        /* \"#utility.yul\":2584:2693   */\n    tag_125:\n        /* \"#utility.yul\":2665:2686   */\n      tag_182\n        /* \"#utility.yul\":2680:2685   */\n      dup2\n        /* \"#utility.yul\":2665:2686   */\n      tag_124\n      jump\t// in\n    tag_182:\n        /* \"#utility.yul\":2660:2663   */\n      dup3\n        /* \"#utility.yul\":2653:2687   */\n      mstore\n        /* \"#utility.yul\":2584:2693   */\n      pop\n      pop\n      jump\t// out\n        /* \"#utility.yul\":2699:3462   */\n    tag_27:\n        /* \"#utility.yul\":2926:2930   */\n      0x00\n        /* \"#utility.yul\":2964:2967   */\n      0xc0\n        /* \"#utility.yul\":2953:2962   */\n      dup3\n        /* \"#utility.yul\":2949:2968   */\n      add\n        /* \"#utility.yul\":2941:2968   */\n      swap1\n      pop\n        /* \"#utility.yul\":2978:3049   */\n      tag_184\n        /* \"#utility.yul\":3046:3047   */\n      0x00\n        /* \"#utility.yul\":3035:3044   */\n      dup4\n        /* \"#utility.yul\":3031:3048   */\n      add\n        /* \"#utility.yul\":3022:3028   */\n      dup10\n        /* \"#utility.yul\":2978:3049   */\n      tag_123\n      jump\t// in\n    tag_184:\n        /* \"#utility.yul\":3059:3131   */\n      tag_185\n        /* \"#utility.yul\":3127:3129   */\n      0x20\n        /* \"#utility.yul\":3116:3125   */\n      dup4\n        /* \"#utility.yul\":3112:3130   */\n      add\n        /* \"#utility.yul\":3103:3109   */\n      dup9\n        /* \"#utility.yul\":3059:3131   */\n      tag_120\n      jump\t// in\n    tag_185:\n        /* \"#utility.yul\":3141:3213   */\n      tag_186\n        /* \"#utility.yul\":3209:3211   */\n      0x40\n        /* \"#utility.yul\":3198:3207   */\n      dup4\n        /* \"#utility.yul\":3194:3212   */\n      add\n        /* \"#utility.yul\":3185:3191   */\n      dup8\n        /* \"#utility.yul\":3141:3213   */\n      tag_120\n      jump\t// in\n    tag_186:\n        /* \"#utility.yul\":3223:3295   */\n      tag_187\n        /* \"#utility.yul\":3291:3293   */\n      0x60\n        /* \"#utility.yul\":3280:3289   */\n      dup4\n        /* \"#utility.yul\":3276:3294   */\n      add\n        /* \"#utility.yul\":3267:3273   */\n      dup7\n        /* \"#utility.yul\":3223:3295   */\n      tag_120\n      jump\t// in\n    tag_187:\n        /* \"#utility.yul\":3305:3378   */\n      tag_188\n        /* \"#utility.yul\":3373:3376   */\n      0x80\n        /* \"#utility.yul\":3362:3371   */\n      dup4\n        /* \"#utility.yul\":3358:3377   */\n      add\n        /* \"#utility.yul\":3349:3355   */\n      dup6\n        /* \"#utility.yul\":3305:3378   */\n      tag_120\n      jump\t// in\n    tag_188:\n        /* \"#utility.yul\":3388:3455   */\n      tag_189\n        /* \"#utility.yul\":3450:3453   */\n      0xa0\n        /* \"#utility.yul\":3439:3448   */\n      dup4\n        /* \"#utility.yul\":3435:3454   */\n      add\n        /* \"#utility.yul\":3426:3432   */\n      dup5\n        /* \"#utility.yul\":3388:3455   */\n      tag_125\n      jump\t// in\n    tag_189:\n        /* \"#utility.yul\":2699:3462   */\n      swap8\n      swap7\n      pop\n      pop\n      pop\n      pop\n      pop\n      pop\n      pop\n      jump\t// out\n        /* \"#utility.yul\":3468:3690   */\n    tag_38:\n        /* \"#utility.yul\":3561:3565   */\n      0x00\n        /* \"#utility.yul\":3599:3601   */\n      0x20\n        /* \"#utility.yul\":3588:3597   */\n      dup3\n        /* \"#utility.yul\":3584:3602   */\n      add\n        /* \"#utility.yul\":3576:3602   */\n      swap1\n      pop\n        /* \"#utility.yul\":3612:3683   */\n      tag_191\n        /* \"#utility.yul\":3680:3681   */\n      0x00\n        /* \"#utility.yul\":3669:3678   */\n      dup4\n        /* \"#utility.yul\":3665:3682   */\n      add\n        /* \"#utility.yul\":3656:3662   */\n      dup5\n        /* \"#utility.yul\":3612:3683   */\n      tag_123\n      jump\t// in\n    tag_191:\n        /* \"#utility.yul\":3468:3690   */\n      swap3\n      swap2\n      pop\n      pop\n      jump\t// out\n        /* \"#utility.yul\":3696:4607   */\n    tag_44:\n        /* \"#utility.yul\":3791:3797   */\n      0x00\n        /* \"#utility.yul\":3799:3805   */\n      dup1\n        /* \"#utility.yul\":3807:3813   */\n      0x00\n        /* \"#utility.yul\":3815:3821   */\n      dup1\n        /* \"#utility.yul\":3823:3829   */\n      0x00\n        /* \"#utility.yul\":3872:3875   */\n      0xa0\n        /* \"#utility.yul\":3860:3869   */\n      dup7\n        /* \"#utility.yul\":3851:3858   */\n      dup9\n        /* \"#utility.yul\":3847:3870   */\n      sub\n        /* \"#utility.yul\":3843:3876   */\n      slt\n        /* \"#utility.yul\":3840:3960   */\n      iszero\n      tag_193\n      jumpi\n        /* \"#utility.yul\":3879:3958   */\n      tag_194\n      tag_113\n      jump\t// in\n    tag_194:\n        /* \"#utility.yul\":3840:3960   */\n    tag_193:\n        /* \"#utility.yul\":3999:4000   */\n      0x00\n        /* \"#utility.yul\":4024:4077   */\n      tag_195\n        /* \"#utility.yul\":4069:4076   */\n      dup9\n        /* \"#utility.yul\":4060:4066   */\n      dup3\n        /* \"#utility.yul\":4049:4058   */\n      dup10\n        /* \"#utility.yul\":4045:4067   */\n      add\n        /* \"#utility.yul\":4024:4077   */\n      tag_118\n      jump\t// in\n    tag_195:\n        /* \"#utility.yul\":4014:4077   */\n      swap6\n      pop\n        /* \"#utility.yul\":3970:4087   */\n      pop\n        /* \"#utility.yul\":4126:4128   */\n      0x20\n        /* \"#utility.yul\":4152:4205   */\n      tag_196\n        /* \"#utility.yul\":4197:4204   */\n      dup9\n        /* \"#utility.yul\":4188:4194   */\n      dup3\n        /* \"#utility.yul\":4177:4186   */\n      dup10\n        /* \"#utility.yul\":4173:4195   */\n      add\n        /* \"#utility.yul\":4152:4205   */\n      tag_122\n      jump\t// in\n    tag_196:\n        /* \"#utility.yul\":4142:4205   */\n      swap5\n      pop\n        /* \"#utility.yul\":4097:4215   */\n      pop\n        /* \"#utility.yul\":4254:4256   */\n      0x40\n        /* \"#utility.yul\":4280:4333   */\n      tag_197\n        /* \"#utility.yul\":4325:4332   */\n      dup9\n        /* \"#utility.yul\":4316:4322   */\n      dup3\n        /* \"#utility.yul\":4305:4314   */\n      dup10\n        /* \"#utility.yul\":4301:4323   */\n      add\n        /* \"#utility.yul\":4280:4333   */\n      tag_122\n      jump\t// in\n    tag_197:\n        /* \"#utility.yul\":4270:4333   */\n      swap4\n      pop\n        /* \"#utility.yul\":4225:4343   */\n      pop\n        /* \"#utility.yul\":4382:4384   */\n      0x60\n        /* \"#utility.yul\":4408:4461   */\n      tag_198\n        /* \"#utility.yul\":4453:4460   */\n      dup9\n        /* \"#utility.yul\":4444:4450   */\n      dup3\n        /* \"#utility.yul\":4433:4442   */\n      dup10\n        /* \"#utility.yul\":4429:4451   */\n      add\n        /* \"#utility.yul\":4408:4461   */\n      tag_122\n      jump\t// in\n    tag_198:\n        /* \"#utility.yul\":4398:4461   */\n      swap3\n      pop\n        /* \"#utility.yul\":4353:4471   */\n      pop\n        /* \"#utility.yul\":4510:4513   */\n      0x80\n        /* \"#utility.yul\":4537:4590   */\n      tag_199\n        /* \"#utility.yul\":4582:4589   */\n      dup9\n        /* \"#utility.yul\":4573:4579   */\n      dup3\n        /* \"#utility.yul\":4562:4571   */\n      dup10\n        /* \"#utility.yul\":4558:4580   */\n      add\n        /* \"#utility.yul\":4537:4590   */\n      tag_122\n      jump\t// in\n    tag_199:\n        /* \"#utility.yul\":4527:4590   */\n      swap2\n      pop\n        /* \"#utility.yul\":4481:4600   */\n      pop\n        /* \"#utility.yul\":3696:4607   */\n      swap3\n      swap6\n      pop\n      swap3\n      swap6\n      swap1\n      swap4\n      pop\n      jump\t// out\n        /* \"#utility.yul\":4613:4782   */\n    tag_126:\n        /* \"#utility.yul\":4697:4708   */\n      0x00\n        /* \"#utility.yul\":4731:4737   */\n      dup3\n        /* \"#utility.yul\":4726:4729   */\n      dup3\n        /* \"#utility.yul\":4719:4738   */\n      mstore\n        /* \"#utility.yul\":4771:4775   */\n      0x20\n        /* \"#utility.yul\":4766:4769   */\n      dup3\n        /* \"#utility.yul\":4762:4776   */\n      add\n        /* \"#utility.yul\":4747:4776   */\n      swap1\n      pop\n        /* \"#utility.yul\":4613:4782   */\n      swap3\n      swap2\n      pop\n      pop\n      jump\t// out\n        /* \"#utility.yul\":4788:4959   */\n    tag_127:\n        /* \"#utility.yul\":4928:4951   */\n      0x436f6e74726570617274696520696e6163746976650000000000000000000000\n        /* \"#utility.yul\":4924:4925   */\n      0x00\n        /* \"#utility.yul\":4916:4922   */\n      dup3\n        /* \"#utility.yul\":4912:4926   */\n      add\n        /* \"#utility.yul\":4905:4952   */\n      mstore\n        /* \"#utility.yul\":4788:4959   */\n      pop\n      jump\t// out\n        /* \"#utility.yul\":4965:5331   */\n    tag_128:\n        /* \"#utility.yul\":5107:5110   */\n      0x00\n        /* \"#utility.yul\":5128:5195   */\n      tag_203\n        /* \"#utility.yul\":5192:5194   */\n      0x15\n        /* \"#utility.yul\":5187:5190   */\n      dup4\n        /* \"#utility.yul\":5128:5195   */\n      tag_126\n      jump\t// in\n    tag_203:\n        /* \"#utility.yul\":5121:5195   */\n      swap2\n      pop\n        /* \"#utility.yul\":5204:5297   */\n      tag_204\n        /* \"#utility.yul\":5293:5296   */\n      dup3\n        /* \"#utility.yul\":5204:5297   */\n      tag_127\n      jump\t// in\n    tag_204:\n        /* \"#utility.yul\":5322:5324   */\n      0x20\n        /* \"#utility.yul\":5317:5320   */\n      dup3\n        /* \"#utility.yul\":5313:5325   */\n      add\n        /* \"#utility.yul\":5306:5325   */\n      swap1\n      pop\n        /* \"#utility.yul\":4965:5331   */\n      swap2\n      swap1\n      pop\n      jump\t// out\n        /* \"#utility.yul\":5337:5756   */\n    tag_52:\n        /* \"#utility.yul\":5503:5507   */\n      0x00\n        /* \"#utility.yul\":5541:5543   */\n      0x20\n        /* \"#utility.yul\":5530:5539   */\n      dup3\n        /* \"#utility.yul\":5526:5544   */\n      add\n        /* \"#utility.yul\":5518:5544   */\n      swap1\n      pop\n        /* \"#utility.yul\":5590:5599   */\n      dup2\n        /* \"#utility.yul\":5584:5588   */\n      dup2\n        /* \"#utility.yul\":5580:5600   */\n      sub\n        /* \"#utility.yul\":5576:5577   */\n      0x00\n        /* \"#utility.yul\":5565:5574   */\n      dup4\n        /* \"#utility.yul\":5561:5578   */\n      add\n        /* \"#utility.yul\":5554:5601   */\n      mstore\n        /* \"#utility.yul\":5618:5749   */\n      tag_206\n        /* \"#utility.yul\":5744:5748   */\n      dup2\n        /* \"#utility.yul\":5618:5749   */\n      tag_128\n      jump\t// in\n    tag_206:\n        /* \"#utility.yul\":5610:5749   */\n      swap1\n      pop\n        /* \"#utility.yul\":5337:5756   */\n      swap2\n      swap1\n      pop\n      jump\t// out\n        /* \"#utility.yul\":5762:5942   */\n    tag_129:\n        /* \"#utility.yul\":5810:5887   */\n      0x4e487b7100000000000000000000000000000000000000000000000000000000\n        /* \"#utility.yul\":5807:5808   */\n      0x00\n        /* \"#utility.yul\":5800:5888   */\n      mstore\n        /* \"#utility.yul\":5907:5911   */\n      0x11\n        /* \"#utility.yul\":5904:5905   */\n      0x04\n        /* \"#utility.yul\":5897:5912   */\n      mstore\n        /* \"#utility.yul\":5931:5935   */\n      0x24\n        /* \"#utility.yul\":5928:5929   */\n      0x00\n        /* \"#utility.yul\":5921:5936   */\n      revert\n        /* \"#utility.yul\":5948:6358   */\n    tag_55:\n        /* \"#utility.yul\":5988:5995   */\n      0x00\n        /* \"#utility.yul\":6011:6031   */\n      tag_209\n        /* \"#utility.yul\":6029:6030   */\n      dup3\n        /* \"#utility.yul\":6011:6031   */\n      tag_119\n      jump\t// in\n    tag_209:\n        /* \"#utility.yul\":6006:6031   */\n      swap2\n      pop\n        /* \"#utility.yul\":6045:6065   */\n      tag_210\n        /* \"#utility.yul\":6063:6064   */\n      dup4\n        /* \"#utility.yul\":6045:6065   */\n      tag_119\n      jump\t// in\n    tag_210:\n        /* \"#utility.yul\":6040:6065   */\n      swap3\n      pop\n        /* \"#utility.yul\":6100:6101   */\n      dup3\n        /* \"#utility.yul\":6097:6098   */\n      dup3\n        /* \"#utility.yul\":6093:6102   */\n      mul\n        /* \"#utility.yul\":6122:6152   */\n      tag_211\n        /* \"#utility.yul\":6140:6151   */\n      dup2\n        /* \"#utility.yul\":6122:6152   */\n      tag_119\n      jump\t// in\n    tag_211:\n        /* \"#utility.yul\":6111:6152   */\n      swap2\n      pop\n        /* \"#utility.yul\":6301:6302   */\n      dup3\n        /* \"#utility.yul\":6292:6299   */\n      dup3\n        /* \"#utility.yul\":6288:6303   */\n      div\n        /* \"#utility.yul\":6285:6286   */\n      dup5\n        /* \"#utility.yul\":6282:6304   */\n      eq\n        /* \"#utility.yul\":6262:6263   */\n      dup4\n        /* \"#utility.yul\":6255:6264   */\n      iszero\n        /* \"#utility.yul\":6235:6318   */\n      or\n        /* \"#utility.yul\":6212:6351   */\n      tag_212\n      jumpi\n        /* \"#utility.yul\":6331:6349   */\n      tag_213\n      tag_129\n      jump\t// in\n    tag_213:\n        /* \"#utility.yul\":6212:6351   */\n    tag_212:\n        /* \"#utility.yul\":5996:6358   */\n      pop\n        /* \"#utility.yul\":5948:6358   */\n      swap3\n      swap2\n      pop\n      pop\n      jump\t// out\n        /* \"#utility.yul\":6364:6544   */\n    tag_130:\n        /* \"#utility.yul\":6412:6489   */\n      0x4e487b7100000000000000000000000000000000000000000000000000000000\n        /* \"#utility.yul\":6409:6410   */\n      0x00\n        /* \"#utility.yul\":6402:6490   */\n      mstore\n        /* \"#utility.yul\":6509:6513   */\n      0x12\n        /* \"#utility.yul\":6506:6507   */\n      0x04\n        /* \"#utility.yul\":6499:6514   */\n      mstore\n        /* \"#utility.yul\":6533:6537   */\n      0x24\n        /* \"#utility.yul\":6530:6531   */\n      0x00\n        /* \"#utility.yul\":6523:6538   */\n      revert\n        /* \"#utility.yul\":6550:6735   */\n    tag_57:\n        /* \"#utility.yul\":6590:6591   */\n      0x00\n        /* \"#utility.yul\":6607:6627   */\n      tag_216\n        /* \"#utility.yul\":6625:6626   */\n      dup3\n        /* \"#utility.yul\":6607:6627   */\n      tag_119\n      jump\t// in\n    tag_216:\n        /* \"#utility.yul\":6602:6627   */\n      swap2\n      pop\n        /* \"#utility.yul\":6641:6661   */\n      tag_217\n        /* \"#utility.yul\":6659:6660   */\n      dup4\n        /* \"#utility.yul\":6641:6661   */\n      tag_119\n      jump\t// in\n    tag_217:\n        /* \"#utility.yul\":6636:6661   */\n      swap3\n      pop\n        /* \"#utility.yul\":6680:6681   */\n      dup3\n        /* \"#utility.yul\":6670:6705   */\n      tag_218\n      jumpi\n        /* \"#utility.yul\":6685:6703   */\n      tag_219\n      tag_130\n      jump\t// in\n    tag_219:\n        /* \"#utility.yul\":6670:6705   */\n    tag_218:\n        /* \"#utility.yul\":6727:6728   */\n      dup3\n        /* \"#utility.yul\":6724:6725   */\n      dup3\n        /* \"#utility.yul\":6720:6729   */\n      div\n        /* \"#utility.yul\":6715:6729   */\n      swap1\n      pop\n        /* \"#utility.yul\":6550:6735   */\n      swap3\n      swap2\n      pop\n      pop\n      jump\t// out\n        /* \"#utility.yul\":6741:6966   */\n    tag_131:\n        /* \"#utility.yul\":6881:6915   */\n      0x4578706f736974696f6e2064657061737365206c61206c696d69746520617574\n        /* \"#utility.yul\":6877:6878   */\n      0x00\n        /* \"#utility.yul\":6869:6875   */\n      dup3\n        /* \"#utility.yul\":6865:6879   */\n      add\n        /* \"#utility.yul\":6858:6916   */\n      mstore\n        /* \"#utility.yul\":6950:6958   */\n      0x6f72697365650000000000000000000000000000000000000000000000000000\n        /* \"#utility.yul\":6945:6947   */\n      0x20\n        /* \"#utility.yul\":6937:6943   */\n      dup3\n        /* \"#utility.yul\":6933:6948   */\n      add\n        /* \"#utility.yul\":6926:6959   */\n      mstore\n        /* \"#utility.yul\":6741:6966   */\n      pop\n      jump\t// out\n        /* \"#utility.yul\":6972:7338   */\n    tag_132:\n        /* \"#utility.yul\":7114:7117   */\n      0x00\n        /* \"#utility.yul\":7135:7202   */\n      tag_222\n        /* \"#utility.yul\":7199:7201   */\n      0x26\n        /* \"#utility.yul\":7194:7197   */\n      dup4\n        /* \"#utility.yul\":7135:7202   */\n      tag_126\n      jump\t// in\n    tag_222:\n        /* \"#utility.yul\":7128:7202   */\n      swap2\n      pop\n        /* \"#utility.yul\":7211:7304   */\n      tag_223\n        /* \"#utility.yul\":7300:7303   */\n      dup3\n        /* \"#utility.yul\":7211:7304   */\n      tag_131\n      jump\t// in\n    tag_223:\n        /* \"#utility.yul\":7329:7331   */\n      0x40\n        /* \"#utility.yul\":7324:7327   */\n      dup3\n        /* \"#utility.yul\":7320:7332   */\n      add\n        /* \"#utility.yul\":7313:7332   */\n      swap1\n      pop\n        /* \"#utility.yul\":6972:7338   */\n      swap2\n      swap1\n      pop\n      jump\t// out\n        /* \"#utility.yul\":7344:7763   */\n    tag_63:\n        /* \"#utility.yul\":7510:7514   */\n      0x00\n        /* \"#utility.yul\":7548:7550   */\n      0x20\n        /* \"#utility.yul\":7537:7546   */\n      dup3\n        /* \"#utility.yul\":7533:7551   */\n      add\n        /* \"#utility.yul\":7525:7551   */\n      swap1\n      pop\n        /* \"#utility.yul\":7597:7606   */\n      dup2\n        /* \"#utility.yul\":7591:7595   */\n      dup2\n        /* \"#utility.yul\":7587:7607   */\n      sub\n        /* \"#utility.yul\":7583:7584   */\n      0x00\n        /* \"#utility.yul\":7572:7581   */\n      dup4\n        /* \"#utility.yul\":7568:7585   */\n      add\n        /* \"#utility.yul\":7561:7608   */\n      mstore\n        /* \"#utility.yul\":7625:7756   */\n      tag_225\n        /* \"#utility.yul\":7751:7755   */\n      dup2\n        /* \"#utility.yul\":7625:7756   */\n      tag_132\n      jump\t// in\n    tag_225:\n        /* \"#utility.yul\":7617:7756   */\n      swap1\n      pop\n        /* \"#utility.yul\":7344:7763   */\n      swap2\n      swap1\n      pop\n      jump\t// out\n        /* \"#utility.yul\":7769:7963   */\n    tag_65:\n        /* \"#utility.yul\":7809:7813   */\n      0x00\n        /* \"#utility.yul\":7829:7849   */\n      tag_227\n        /* \"#utility.yul\":7847:7848   */\n      dup3\n        /* \"#utility.yul\":7829:7849   */\n      tag_119\n      jump\t// in\n    tag_227:\n        /* \"#utility.yul\":7824:7849   */\n      swap2\n      pop\n        /* \"#utility.yul\":7863:7883   */\n      tag_228\n        /* \"#utility.yul\":7881:7882   */\n      dup4\n        /* \"#utility.yul\":7863:7883   */\n      tag_119\n      jump\t// in\n    tag_228:\n        /* \"#utility.yul\":7858:7883   */\n      swap3\n      pop\n        /* \"#utility.yul\":7907:7908   */\n      dup3\n        /* \"#utility.yul\":7904:7905   */\n      dup3\n        /* \"#utility.yul\":7900:7909   */\n      sub\n        /* \"#utility.yul\":7892:7909   */\n      swap1\n      pop\n        /* \"#utility.yul\":7931:7932   */\n      dup2\n        /* \"#utility.yul\":7925:7929   */\n      dup2\n        /* \"#utility.yul\":7922:7933   */\n      gt\n        /* \"#utility.yul\":7919:7956   */\n      iszero\n      tag_229\n      jumpi\n        /* \"#utility.yul\":7936:7954   */\n      tag_230\n      tag_129\n      jump\t// in\n    tag_230:\n        /* \"#utility.yul\":7919:7956   */\n    tag_229:\n        /* \"#utility.yul\":7769:7963   */\n      swap3\n      swap2\n      pop\n      pop\n      jump\t// out\n        /* \"#utility.yul\":7969:8160   */\n    tag_67:\n        /* \"#utility.yul\":8009:8012   */\n      0x00\n        /* \"#utility.yul\":8028:8048   */\n      tag_232\n        /* \"#utility.yul\":8046:8047   */\n      dup3\n        /* \"#utility.yul\":8028:8048   */\n      tag_119\n      jump\t// in\n    tag_232:\n        /* \"#utility.yul\":8023:8048   */\n      swap2\n      pop\n        /* \"#utility.yul\":8062:8082   */\n      tag_233\n        /* \"#utility.yul\":8080:8081   */\n      dup4\n        /* \"#utility.yul\":8062:8082   */\n      tag_119\n      jump\t// in\n    tag_233:\n        /* \"#utility.yul\":8057:8082   */\n      swap3\n      pop\n        /* \"#utility.yul\":8105:8106   */\n      dup3\n        /* \"#utility.yul\":8102:8103   */\n      dup3\n        /* \"#utility.yul\":8098:8107   */\n      add\n        /* \"#utility.yul\":8091:8107   */\n      swap1\n      pop\n        /* \"#utility.yul\":8126:8129   */\n      dup1\n        /* \"#utility.yul\":8123:8124   */\n      dup3\n        /* \"#utility.yul\":8120:8130   */\n      gt\n        /* \"#utility.yul\":8117:8153   */\n      iszero\n      tag_234\n      jumpi\n        /* \"#utility.yul\":8133:8151   */\n      tag_235\n      tag_129\n      jump\t// in\n    tag_235:\n        /* \"#utility.yul\":8117:8153   */\n    tag_234:\n        /* \"#utility.yul\":7969:8160   */\n      swap3\n      swap2\n      pop\n      pop\n      jump\t// out\n        /* \"#utility.yul\":8166:8608   */\n    tag_70:\n        /* \"#utility.yul\":8315:8319   */\n      0x00\n        /* \"#utility.yul\":8353:8355   */\n      0x60\n        /* \"#utility.yul\":8342:8351   */\n      dup3\n        /* \"#utility.yul\":8338:8356   */\n      add\n        /* \"#utility.yul\":8330:8356   */\n      swap1\n      pop\n        /* \"#utility.yul\":8366:8437   */\n      tag_237\n        /* \"#utility.yul\":8434:8435   */\n      0x00\n        /* \"#utility.yul\":8423:8432   */\n      dup4\n        /* \"#utility.yul\":8419:8436   */\n      add\n        /* \"#utility.yul\":8410:8416   */\n      dup7\n        /* \"#utility.yul\":8366:8437   */\n      tag_120\n      jump\t// in\n    tag_237:\n        /* \"#utility.yul\":8447:8519   */\n      tag_238\n        /* \"#utility.yul\":8515:8517   */\n      0x20\n        /* \"#utility.yul\":8504:8513   */\n      dup4\n        /* \"#utility.yul\":8500:8518   */\n      add\n        /* \"#utility.yul\":8491:8497   */\n      dup6\n        /* \"#utility.yul\":8447:8519   */\n      tag_120\n      jump\t// in\n    tag_238:\n        /* \"#utility.yul\":8529:8601   */\n      tag_239\n        /* \"#utility.yul\":8597:8599   */\n      0x40\n        /* \"#utility.yul\":8586:8595   */\n      dup4\n        /* \"#utility.yul\":8582:8600   */\n      add\n        /* \"#utility.yul\":8573:8579   */\n      dup5\n        /* \"#utility.yul\":8529:8601   */\n      tag_120\n      jump\t// in\n    tag_239:\n        /* \"#utility.yul\":8166:8608   */\n      swap5\n      swap4\n      pop\n      pop\n      pop\n      pop\n      jump\t// out\n        /* \"#utility.yul\":8614:8946   */\n    tag_73:\n        /* \"#utility.yul\":8735:8739   */\n      0x00\n        /* \"#utility.yul\":8773:8775   */\n      0x40\n        /* \"#utility.yul\":8762:8771   */\n      dup3\n        /* \"#utility.yul\":8758:8776   */\n      add\n        /* \"#utility.yul\":8750:8776   */\n      swap1\n      pop\n        /* \"#utility.yul\":8786:8857   */\n      tag_241\n        /* \"#utility.yul\":8854:8855   */\n      0x00\n        /* \"#utility.yul\":8843:8852   */\n      dup4\n        /* \"#utility.yul\":8839:8856   */\n      add\n        /* \"#utility.yul\":8830:8836   */\n      dup6\n        /* \"#utility.yul\":8786:8857   */\n      tag_120\n      jump\t// in\n    tag_241:\n        /* \"#utility.yul\":8867:8939   */\n      tag_242\n        /* \"#utility.yul\":8935:8937   */\n      0x20\n        /* \"#utility.yul\":8924:8933   */\n      dup4\n        /* \"#utility.yul\":8920:8938   */\n      add\n        /* \"#utility.yul\":8911:8917   */\n      dup5\n        /* \"#utility.yul\":8867:8939   */\n      tag_120\n      jump\t// in\n    tag_242:\n        /* \"#utility.yul\":8614:8946   */\n      swap4\n      swap3\n      pop\n      pop\n      pop\n      jump\t// out\n        /* \"#utility.yul\":8952:9133   */\n    tag_133:\n        /* \"#utility.yul\":9092:9125   */\n      0x416363657320726573747265696e742061752070726f70726965746169726500\n        /* \"#utility.yul\":9088:9089   */\n      0x00\n        /* \"#utility.yul\":9080:9086   */\n      dup3\n        /* \"#utility.yul\":9076:9090   */\n      add\n        /* \"#utility.yul\":9069:9126   */\n      mstore\n        /* \"#utility.yul\":8952:9133   */\n      pop\n      jump\t// out\n        /* \"#utility.yul\":9139:9505   */\n    tag_134:\n        /* \"#utility.yul\":9281:9284   */\n      0x00\n        /* \"#utility.yul\":9302:9369   */\n      tag_245\n        /* \"#utility.yul\":9366:9368   */\n      0x1f\n        /* \"#utility.yul\":9361:9364   */\n      dup4\n        /* \"#utility.yul\":9302:9369   */\n      tag_126\n      jump\t// in\n    tag_245:\n        /* \"#utility.yul\":9295:9369   */\n      swap2\n      pop\n        /* \"#utility.yul\":9378:9471   */\n      tag_246\n        /* \"#utility.yul\":9467:9470   */\n      dup3\n        /* \"#utility.yul\":9378:9471   */\n      tag_133\n      jump\t// in\n    tag_246:\n        /* \"#utility.yul\":9496:9498   */\n      0x20\n        /* \"#utility.yul\":9491:9494   */\n      dup3\n        /* \"#utility.yul\":9487:9499   */\n      add\n        /* \"#utility.yul\":9480:9499   */\n      swap1\n      pop\n        /* \"#utility.yul\":9139:9505   */\n      swap2\n      swap1\n      pop\n      jump\t// out\n        /* \"#utility.yul\":9511:9930   */\n    tag_86:\n        /* \"#utility.yul\":9677:9681   */\n      0x00\n        /* \"#utility.yul\":9715:9717   */\n      0x20\n        /* \"#utility.yul\":9704:9713   */\n      dup3\n        /* \"#utility.yul\":9700:9718   */\n      add\n        /* \"#utility.yul\":9692:9718   */\n      swap1\n      pop\n        /* \"#utility.yul\":9764:9773   */\n      dup2\n        /* \"#utility.yul\":9758:9762   */\n      dup2\n        /* \"#utility.yul\":9754:9774   */\n      sub\n        /* \"#utility.yul\":9750:9751   */\n      0x00\n        /* \"#utility.yul\":9739:9748   */\n      dup4\n        /* \"#utility.yul\":9735:9752   */\n      add\n        /* \"#utility.yul\":9728:9775   */\n      mstore\n        /* \"#utility.yul\":9792:9923   */\n      tag_248\n        /* \"#utility.yul\":9918:9922   */\n      dup2\n        /* \"#utility.yul\":9792:9923   */\n      tag_134\n      jump\t// in\n    tag_248:\n        /* \"#utility.yul\":9784:9923   */\n      swap1\n      pop\n        /* \"#utility.yul\":9511:9930   */\n      swap2\n      swap1\n      pop\n      jump\t// out\n        /* \"#utility.yul\":9936:10102   */\n    tag_135:\n        /* \"#utility.yul\":10076:10094   */\n      0x4164726573736520696e76616c69646500000000000000000000000000000000\n        /* \"#utility.yul\":10072:10073   */\n      0x00\n        /* \"#utility.yul\":10064:10070   */\n      dup3\n        /* \"#utility.yul\":10060:10074   */\n      add\n        /* \"#utility.yul\":10053:10095   */\n      mstore\n        /* \"#utility.yul\":9936:10102   */\n      pop\n      jump\t// out\n        /* \"#utility.yul\":10108:10474   */\n    tag_136:\n        /* \"#utility.yul\":10250:10253   */\n      0x00\n        /* \"#utility.yul\":10271:10338   */\n      tag_251\n        /* \"#utility.yul\":10335:10337   */\n      0x10\n        /* \"#utility.yul\":10330:10333   */\n      dup4\n        /* \"#utility.yul\":10271:10338   */\n      tag_126\n      jump\t// in\n    tag_251:\n        /* \"#utility.yul\":10264:10338   */\n      swap2\n      pop\n        /* \"#utility.yul\":10347:10440   */\n      tag_252\n        /* \"#utility.yul\":10436:10439   */\n      dup3\n        /* \"#utility.yul\":10347:10440   */\n      tag_135\n      jump\t// in\n    tag_252:\n        /* \"#utility.yul\":10465:10467   */\n      0x20\n        /* \"#utility.yul\":10460:10463   */\n      dup3\n        /* \"#utility.yul\":10456:10468   */\n      add\n        /* \"#utility.yul\":10449:10468   */\n      swap1\n      pop\n        /* \"#utility.yul\":10108:10474   */\n      swap2\n      swap1\n      pop\n      jump\t// out\n        /* \"#utility.yul\":10480:10899   */\n    tag_90:\n        /* \"#utility.yul\":10646:10650   */\n      0x00\n        /* \"#utility.yul\":10684:10686   */\n      0x20\n        /* \"#utility.yul\":10673:10682   */\n      dup3\n        /* \"#utility.yul\":10669:10687   */\n      add\n        /* \"#utility.yul\":10661:10687   */\n      swap1\n      pop\n        /* \"#utility.yul\":10733:10742   */\n      dup2\n        /* \"#utility.yul\":10727:10731   */\n      dup2\n        /* \"#utility.yul\":10723:10743   */\n      sub\n        /* \"#utility.yul\":10719:10720   */\n      0x00\n        /* \"#utility.yul\":10708:10717   */\n      dup4\n        /* \"#utility.yul\":10704:10721   */\n      add\n        /* \"#utility.yul\":10697:10744   */\n      mstore\n        /* \"#utility.yul\":10761:10892   */\n      tag_254\n        /* \"#utility.yul\":10887:10891   */\n      dup2\n        /* \"#utility.yul\":10761:10892   */\n      tag_136\n      jump\t// in\n    tag_254:\n        /* \"#utility.yul\":10753:10892   */\n      swap1\n      pop\n        /* \"#utility.yul\":10480:10899   */\n      swap2\n      swap1\n      pop\n      jump\t// out\n        /* \"#utility.yul\":10905:11079   */\n    tag_137:\n        /* \"#utility.yul\":11045:11071   */\n      0x53636f72652064652063726564697420696e76616c6964650000000000000000\n        /* \"#utility.yul\":11041:11042   */\n      0x00\n        /* \"#utility.yul\":11033:11039   */\n      dup3\n        /* \"#utility.yul\":11029:11043   */\n      add\n        /* \"#utility.yul\":11022:11072   */\n      mstore\n        /* \"#utility.yul\":10905:11079   */\n      pop\n      jump\t// out\n        /* \"#utility.yul\":11085:11451   */\n    tag_138:\n        /* \"#utility.yul\":11227:11230   */\n      0x00\n        /* \"#utility.yul\":11248:11315   */\n      tag_257\n        /* \"#utility.yul\":11312:11314   */\n      0x18\n        /* \"#utility.yul\":11307:11310   */\n      dup4\n        /* \"#utility.yul\":11248:11315   */\n      tag_126\n      jump\t// in\n    tag_257:\n        /* \"#utility.yul\":11241:11315   */\n      swap2\n      pop\n        /* \"#utility.yul\":11324:11417   */\n      tag_258\n        /* \"#utility.yul\":11413:11416   */\n      dup3\n        /* \"#utility.yul\":11324:11417   */\n      tag_137\n      jump\t// in\n    tag_258:\n        /* \"#utility.yul\":11442:11444   */\n      0x20\n        /* \"#utility.yul\":11437:11440   */\n      dup3\n        /* \"#utility.yul\":11433:11445   */\n      add\n        /* \"#utility.yul\":11426:11445   */\n      swap1\n      pop\n        /* \"#utility.yul\":11085:11451   */\n      swap2\n      swap1\n      pop\n      jump\t// out\n        /* \"#utility.yul\":11457:11876   */\n    tag_93:\n        /* \"#utility.yul\":11623:11627   */\n      0x00\n        /* \"#utility.yul\":11661:11663   */\n      0x20\n        /* \"#utility.yul\":11650:11659   */\n      dup3\n        /* \"#utility.yul\":11646:11664   */\n      add\n        /* \"#utility.yul\":11638:11664   */\n      swap1\n      pop\n        /* \"#utility.yul\":11710:11719   */\n      dup2\n        /* \"#utility.yul\":11704:11708   */\n      dup2\n        /* \"#utility.yul\":11700:11720   */\n      sub\n        /* \"#utility.yul\":11696:11697   */\n      0x00\n        /* \"#utility.yul\":11685:11694   */\n      dup4\n        /* \"#utility.yul\":11681:11698   */\n      add\n        /* \"#utility.yul\":11674:11721   */\n      mstore\n        /* \"#utility.yul\":11738:11869   */\n      tag_260\n        /* \"#utility.yul\":11864:11868   */\n      dup2\n        /* \"#utility.yul\":11738:11869   */\n      tag_138\n      jump\t// in\n    tag_260:\n        /* \"#utility.yul\":11730:11869   */\n      swap1\n      pop\n        /* \"#utility.yul\":11457:11876   */\n      swap2\n      swap1\n      pop\n      jump\t// out\n        /* \"#utility.yul\":11882:12060   */\n    tag_139:\n        /* \"#utility.yul\":12022:12052   */\n      0x4c696d6974652064276578706f736974696f6e20696e76616c69646500000000\n        /* \"#utility.yul\":12018:12019   */\n      0x00\n        /* \"#utility.yul\":12010:12016   */\n      dup3\n        /* \"#utility.yul\":12006:12020   */\n      add\n        /* \"#utility.yul\":11999:12053   */\n      mstore\n        /* \"#utility.yul\":11882:12060   */\n      pop\n      jump\t// out\n        /* \"#utility.yul\":12066:12432   */\n    tag_140:\n        /* \"#utility.yul\":12208:12211   */\n      0x00\n        /* \"#utility.yul\":12229:12296   */\n      tag_263\n        /* \"#utility.yul\":12293:12295   */\n      0x1c\n        /* \"#utility.yul\":12288:12291   */\n      dup4\n        /* \"#utility.yul\":12229:12296   */\n      tag_126\n      jump\t// in\n    tag_263:\n        /* \"#utility.yul\":12222:12296   */\n      swap2\n      pop\n        /* \"#utility.yul\":12305:12398   */\n      tag_264\n        /* \"#utility.yul\":12394:12397   */\n      dup3\n        /* \"#utility.yul\":12305:12398   */\n      tag_139\n      jump\t// in\n    tag_264:\n        /* \"#utility.yul\":12423:12425   */\n      0x20\n        /* \"#utility.yul\":12418:12421   */\n      dup3\n        /* \"#utility.yul\":12414:12426   */\n      add\n        /* \"#utility.yul\":12407:12426   */\n      swap1\n      pop\n        /* \"#utility.yul\":12066:12432   */\n      swap2\n      swap1\n      pop\n      jump\t// out\n        /* \"#utility.yul\":12438:12857   */\n    tag_96:\n        /* \"#utility.yul\":12604:12608   */\n      0x00\n        /* \"#utility.yul\":12642:12644   */\n      0x20\n        /* \"#utility.yul\":12631:12640   */\n      dup3\n        /* \"#utility.yul\":12627:12645   */\n      add\n        /* \"#utility.yul\":12619:12645   */\n      swap1\n      pop\n        /* \"#utility.yul\":12691:12700   */\n      dup2\n        /* \"#utility.yul\":12685:12689   */\n      dup2\n        /* \"#utility.yul\":12681:12701   */\n      sub\n        /* \"#utility.yul\":12677:12678   */\n      0x00\n        /* \"#utility.yul\":12666:12675   */\n      dup4\n        /* \"#utility.yul\":12662:12679   */\n      add\n        /* \"#utility.yul\":12655:12702   */\n      mstore\n        /* \"#utility.yul\":12719:12850   */\n      tag_266\n        /* \"#utility.yul\":12845:12849   */\n      dup2\n        /* \"#utility.yul\":12719:12850   */\n      tag_140\n      jump\t// in\n    tag_266:\n        /* \"#utility.yul\":12711:12850   */\n      swap1\n      pop\n        /* \"#utility.yul\":12438:12857   */\n      swap2\n      swap1\n      pop\n      jump\t// out\n        /* \"#utility.yul\":12863:13087   */\n    tag_141:\n        /* \"#utility.yul\":13003:13037   */\n      0x4578706f736974696f6e20636f7572616e74652064657061737365206c61206c\n        /* \"#utility.yul\":12999:13000   */\n      0x00\n        /* \"#utility.yul\":12991:12997   */\n      dup3\n        /* \"#utility.yul\":12987:13001   */\n      add\n        /* \"#utility.yul\":12980:13038   */\n      mstore\n        /* \"#utility.yul\":13072:13079   */\n      0x696d697465000000000000000000000000000000000000000000000000000000\n        /* \"#utility.yul\":13067:13069   */\n      0x20\n        /* \"#utility.yul\":13059:13065   */\n      dup3\n        /* \"#utility.yul\":13055:13070   */\n      add\n        /* \"#utility.yul\":13048:13080   */\n      mstore\n        /* \"#utility.yul\":12863:13087   */\n      pop\n      jump\t// out\n        /* \"#utility.yul\":13093:13459   */\n    tag_142:\n        /* \"#utility.yul\":13235:13238   */\n      0x00\n        /* \"#utility.yul\":13256:13323   */\n      tag_269\n        /* \"#utility.yul\":13320:13322   */\n      0x25\n        /* \"#utility.yul\":13315:13318   */\n      dup4\n        /* \"#utility.yul\":13256:13323   */\n      tag_126\n      jump\t// in\n    tag_269:\n        /* \"#utility.yul\":13249:13323   */\n      swap2\n      pop\n        /* \"#utility.yul\":13332:13425   */\n      tag_270\n        /* \"#utility.yul\":13421:13424   */\n      dup3\n        /* \"#utility.yul\":13332:13425   */\n      tag_141\n      jump\t// in\n    tag_270:\n        /* \"#utility.yul\":13450:13452   */\n      0x40\n        /* \"#utility.yul\":13445:13448   */\n      dup3\n        /* \"#utility.yul\":13441:13453   */\n      add\n        /* \"#utility.yul\":13434:13453   */\n      swap1\n      pop\n        /* \"#utility.yul\":13093:13459   */\n      swap2\n      swap1\n      pop\n      jump\t// out\n        /* \"#utility.yul\":13465:13884   */\n    tag_99:\n        /* \"#utility.yul\":13631:13635   */\n      0x00\n        /* \"#utility.yul\":13669:13671   */\n      0x20\n        /* \"#utility.yul\":13658:13667   */\n      dup3\n        /* \"#utility.yul\":13654:13672   */\n      add\n        /* \"#utility.yul\":13646:13672   */\n      swap1\n      pop\n        /* \"#utility.yul\":13718:13727   */\n      dup2\n        /* \"#utility.yul\":13712:13716   */\n      dup2\n        /* \"#utility.yul\":13708:13728   */\n      sub\n        /* \"#utility.yul\":13704:13705   */\n      0x00\n        /* \"#utility.yul\":13693:13702   */\n      dup4\n        /* \"#utility.yul\":13689:13706   */\n      add\n        /* \"#utility.yul\":13682:13729   */\n      mstore\n        /* \"#utility.yul\":13746:13877   */\n      tag_272\n        /* \"#utility.yul\":13872:13876   */\n      dup2\n        /* \"#utility.yul\":13746:13877   */\n      tag_142\n      jump\t// in\n    tag_272:\n        /* \"#utility.yul\":13738:13877   */\n      swap1\n      pop\n        /* \"#utility.yul\":13465:13884   */\n      swap2\n      swap1\n      pop\n      jump\t// out\n        /* \"#utility.yul\":13890:14069   */\n    tag_143:\n        /* \"#utility.yul\":14030:14061   */\n      0x436f6e7472657061727469652064656a6120656e726567697374726565000000\n        /* \"#utility.yul\":14026:14027   */\n      0x00\n        /* \"#utility.yul\":14018:14024   */\n      dup3\n        /* \"#utility.yul\":14014:14028   */\n      add\n        /* \"#utility.yul\":14007:14062   */\n      mstore\n        /* \"#utility.yul\":13890:14069   */\n      pop\n      jump\t// out\n        /* \"#utility.yul\":14075:14441   */\n    tag_144:\n        /* \"#utility.yul\":14217:14220   */\n      0x00\n        /* \"#utility.yul\":14238:14305   */\n      tag_275\n        /* \"#utility.yul\":14302:14304   */\n      0x1d\n        /* \"#utility.yul\":14297:14300   */\n      dup4\n        /* \"#utility.yul\":14238:14305   */\n      tag_126\n      jump\t// in\n    tag_275:\n        /* \"#utility.yul\":14231:14305   */\n      swap2\n      pop\n        /* \"#utility.yul\":14314:14407   */\n      tag_276\n        /* \"#utility.yul\":14403:14406   */\n      dup3\n        /* \"#utility.yul\":14314:14407   */\n      tag_143\n      jump\t// in\n    tag_276:\n        /* \"#utility.yul\":14432:14434   */\n      0x20\n        /* \"#utility.yul\":14427:14430   */\n      dup3\n        /* \"#utility.yul\":14423:14435   */\n      add\n        /* \"#utility.yul\":14416:14435   */\n      swap1\n      pop\n        /* \"#utility.yul\":14075:14441   */\n      swap2\n      swap1\n      pop\n      jump\t// out\n        /* \"#utility.yul\":14447:14866   */\n    tag_102:\n        /* \"#utility.yul\":14613:14617   */\n      0x00\n        /* \"#utility.yul\":14651:14653   */\n      0x20\n        /* \"#utility.yul\":14640:14649   */\n      dup3\n        /* \"#utility.yul\":14636:14654   */\n      add\n        /* \"#utility.yul\":14628:14654   */\n      swap1\n      pop\n        /* \"#utility.yul\":14700:14709   */\n      dup2\n        /* \"#utility.yul\":14694:14698   */\n      dup2\n        /* \"#utility.yul\":14690:14710   */\n      sub\n        /* \"#utility.yul\":14686:14687   */\n      0x00\n        /* \"#utility.yul\":14675:14684   */\n      dup4\n        /* \"#utility.yul\":14671:14688   */\n      add\n        /* \"#utility.yul\":14664:14711   */\n      mstore\n        /* \"#utility.yul\":14728:14859   */\n      tag_278\n        /* \"#utility.yul\":14854:14858   */\n      dup2\n        /* \"#utility.yul\":14728:14859   */\n      tag_144\n      jump\t// in\n    tag_278:\n        /* \"#utility.yul\":14720:14859   */\n      swap1\n      pop\n        /* \"#utility.yul\":14447:14866   */\n      swap2\n      swap1\n      pop\n      jump\t// out\n        /* \"#utility.yul\":14872:15093   */\n    tag_145:\n        /* \"#utility.yul\":15012:15046   */\n      0x4e6f7576656c6c65206164726573736520656d65747465757220696e76616c69\n        /* \"#utility.yul\":15008:15009   */\n      0x00\n        /* \"#utility.yul\":15000:15006   */\n      dup3\n        /* \"#utility.yul\":14996:15010   */\n      add\n        /* \"#utility.yul\":14989:15047   */\n      mstore\n        /* \"#utility.yul\":15081:15085   */\n      0x6465000000000000000000000000000000000000000000000000000000000000\n        /* \"#utility.yul\":15076:15078   */\n      0x20\n        /* \"#utility.yul\":15068:15074   */\n      dup3\n        /* \"#utility.yul\":15064:15079   */\n      add\n        /* \"#utility.yul\":15057:15086   */\n      mstore\n        /* \"#utility.yul\":14872:15093   */\n      pop\n      jump\t// out\n        /* \"#utility.yul\":15099:15465   */\n    tag_146:\n        /* \"#utility.yul\":15241:15244   */\n      0x00\n        /* \"#utility.yul\":15262:15329   */\n      tag_281\n        /* \"#utility.yul\":15326:15328   */\n      0x22\n        /* \"#utility.yul\":15321:15324   */\n      dup4\n        /* \"#utility.yul\":15262:15329   */\n      tag_126\n      jump\t// in\n    tag_281:\n        /* \"#utility.yul\":15255:15329   */\n      swap2\n      pop\n        /* \"#utility.yul\":15338:15431   */\n      tag_282\n        /* \"#utility.yul\":15427:15430   */\n      dup3\n        /* \"#utility.yul\":15338:15431   */\n      tag_145\n      jump\t// in\n    tag_282:\n        /* \"#utility.yul\":15456:15458   */\n      0x40\n        /* \"#utility.yul\":15451:15454   */\n      dup3\n        /* \"#utility.yul\":15447:15459   */\n      add\n        /* \"#utility.yul\":15440:15459   */\n      swap1\n      pop\n        /* \"#utility.yul\":15099:15465   */\n      swap2\n      swap1\n      pop\n      jump\t// out\n        /* \"#utility.yul\":15471:15890   */\n    tag_111:\n        /* \"#utility.yul\":15637:15641   */\n      0x00\n        /* \"#utility.yul\":15675:15677   */\n      0x20\n        /* \"#utility.yul\":15664:15673   */\n      dup3\n        /* \"#utility.yul\":15660:15678   */\n      add\n        /* \"#utility.yul\":15652:15678   */\n      swap1\n      pop\n        /* \"#utility.yul\":15724:15733   */\n      dup2\n        /* \"#utility.yul\":15718:15722   */\n      dup2\n        /* \"#utility.yul\":15714:15734   */\n      sub\n        /* \"#utility.yul\":15710:15711   */\n      0x00\n        /* \"#utility.yul\":15699:15708   */\n      dup4\n        /* \"#utility.yul\":15695:15712   */\n      add\n        /* \"#utility.yul\":15688:15735   */\n      mstore\n        /* \"#utility.yul\":15752:15883   */\n      tag_284\n        /* \"#utility.yul\":15878:15882   */\n      dup2\n        /* \"#utility.yul\":15752:15883   */\n      tag_146\n      jump\t// in\n    tag_284:\n        /* \"#utility.yul\":15744:15883   */\n      swap1\n      pop\n        /* \"#utility.yul\":15471:15890   */\n      swap2\n      swap1\n      pop\n      jump\t// out\n\n    auxdata: 0xa264697066735822122078e75c0b09624548494e8cc0a0e4528bf004d3bd58d083a92065c0b15d4be31b64736f6c634300081a0033\n}\n",
				"bytecode": {
					"linkReferences": {},
					"object": "608060405234801561000f575f80fd5b5060405161176e38038061176e83398181016040528101906100319190610183565b5f73ffffffffffffffffffffffffffffffffffffffff168173ffffffffffffffffffffffffffffffffffffffff160361009f576040517f08c379a000000000000000000000000000000000000000000000000000000000815260040161009690610208565b60405180910390fd5b3360025f6101000a81548173ffffffffffffffffffffffffffffffffffffffff021916908373ffffffffffffffffffffffffffffffffffffffff1602179055508060035f6101000a81548173ffffffffffffffffffffffffffffffffffffffff021916908373ffffffffffffffffffffffffffffffffffffffff16021790555050610226565b5f80fd5b5f73ffffffffffffffffffffffffffffffffffffffff82169050919050565b5f61015282610129565b9050919050565b61016281610148565b811461016c575f80fd5b50565b5f8151905061017d81610159565b92915050565b5f6020828403121561019857610197610125565b5b5f6101a58482850161016f565b91505092915050565b5f82825260208201905092915050565b7f4164726573736520656d65747465757220696e76616c696465000000000000005f82015250565b5f6101f26019836101ae565b91506101fd826101be565b602082019050919050565b5f6020820190508181035f83015261021f816101e6565b9050919050565b61153b806102335f395ff3fe608060405234801561000f575f80fd5b5060043610610091575f3560e01c806379f883da1161006457806379f883da146101465780638518c6d4146101645780638da5cb5b14610182578063c04dcc30146101a0578063f70a1017146101bc57610091565b80630aae162e146100955780631922701e146100c5578063760b1eee146100e1578063786a2d0814610116575b5f80fd5b6100af60048036038101906100aa9190610d72565b6101d8565b6040516100bc9190610db5565b60405180910390f35b6100df60048036038101906100da9190610df8565b61033b565b005b6100fb60048036038101906100f69190610d72565b610578565b60405161010d96959493929190610e5f565b60405180910390f35b610130600480360381019061012b9190610d72565b6105da565b60405161013d9190610db5565b60405180910390f35b61014e6107b7565b60405161015b9190610db5565b60405180910390f35b61016c6107bd565b6040516101799190610ebe565b60405180910390f35b61018a6107e2565b6040516101979190610ebe565b60405180910390f35b6101ba60048036038101906101b59190610ed7565b610807565b005b6101d660048036038101906101d19190610d72565b610bd4565b005b5f805f808473ffffffffffffffffffffffffffffffffffffffff1673ffffffffffffffffffffffffffffffffffffffff1681526020019081526020015f206040518060c00160405290815f82015f9054906101000a900473ffffffffffffffffffffffffffffffffffffffff1673ffffffffffffffffffffffffffffffffffffffff1673ffffffffffffffffffffffffffffffffffffffff16815260200160018201548152602001600282015481526020016003820154815260200160048201548152602001600582015f9054906101000a900460ff16151515158152505090508060a001516102fd576040517f08c379a00000000000000000000000000000000000000000000000000000000081526004016102f490610fa8565b60405180910390fd5b5f816060015111156103315780606001516064826080015161031f9190610ff3565b6103299190611061565b915050610336565b5f9150505b919050565b5f808373ffffffffffffffffffffffffffffffffffffffff1673ffffffffffffffffffffffffffffffffffffffff1681526020019081526020015f206005015f9054906101000a900460ff166103c6576040517f08c379a00000000000000000000000000000000000000000000000000000000081526004016103bd90610fa8565b60405180910390fd5b5f808373ffffffffffffffffffffffffffffffffffffffff1673ffffffffffffffffffffffffffffffffffffffff1681526020019081526020015f2060020154811115610448576040517f08c379a000000000000000000000000000000000000000000000000000000000815260040161043f90611101565b60405180910390fd5b5f805f8473ffffffffffffffffffffffffffffffffffffffff1673ffffffffffffffffffffffffffffffffffffffff1681526020019081526020015f20905081816003015460015461049a919061111f565b6104a49190611152565b600181905550818160030181905550806002015481600301541115610522578273ffffffffffffffffffffffffffffffffffffffff167fb857fb6cae42949c03cf586273bcaeada47b4819c5d68f8b91fd43393af83896826003015483600201544260405161051593929190611185565b60405180910390a2610573565b8273ffffffffffffffffffffffffffffffffffffffff167f1c7018925c6453dc3925809f94085f519b73f3fba1c0a19d41b8f936ca523fa8834260405161056a9291906111ba565b60405180910390a25b505050565b5f602052805f5260405f205f91509050805f015f9054906101000a900473ffffffffffffffffffffffffffffffffffffffff1690806001015490806002015490806003015490806004015490806005015f9054906101000a900460ff16905086565b5f805f8373ffffffffffffffffffffffffffffffffffffffff1673ffffffffffffffffffffffffffffffffffffffff1681526020019081526020015f206005015f9054906101000a900460ff16610666576040517f08c379a000000000000000000000000000000000000000000000000000000000815260040161065d90610fa8565b60405180910390fd5b5f805f8473ffffffffffffffffffffffffffffffffffffffff1673ffffffffffffffffffffffffffffffffffffffff1681526020019081526020015f206040518060c00160405290815f82015f9054906101000a900473ffffffffffffffffffffffffffffffffffffffff1673ffffffffffffffffffffffffffffffffffffffff1673ffffffffffffffffffffffffffffffffffffffff16815260200160018201548152602001600282015481526020016003820154815260200160048201548152602001600582015f9054906101000a900460ff16151515158152505090505f8160400151148061075b57505f8160200151145b15610769575f9150506107b2565b5f8160400151606483606001516107809190610ff3565b61078a9190611061565b90505f8260200151606461079e9190611061565b905080826107ac9190610ff3565b93505050505b919050565b60015481565b60035f9054906101000a900473ffffffffffffffffffffffffffffffffffffffff1681565b60025f9054906101000a900473ffffffffffffffffffffffffffffffffffffffff1681565b60025f9054906101000a900473ffffffffffffffffffffffffffffffffffffffff1673ffffffffffffffffffffffffffffffffffffffff163373ffffffffffffffffffffffffffffffffffffffff1614610896576040517f08c379a000000000000000000000000000000000000000000000000000000000815260040161088d9061122b565b60405180910390fd5b5f73ffffffffffffffffffffffffffffffffffffffff168573ffffffffffffffffffffffffffffffffffffffff1603610904576040517f08c379a00000000000000000000000000000000000000000000000000000000081526004016108fb90611293565b60405180910390fd5b5f8411610946576040517f08c379a000000000000000000000000000000000000000000000000000000000815260040161093d906112fb565b60405180910390fd5b5f8311610988576040517f08c379a000000000000000000000000000000000000000000000000000000000815260040161097f90611363565b60405180910390fd5b828211156109cb576040517f08c379a00000000000000000000000000000000000000000000000000000000081526004016109c2906113f1565b60405180910390fd5b5f808673ffffffffffffffffffffffffffffffffffffffff1673ffffffffffffffffffffffffffffffffffffffff1681526020019081526020015f206005015f9054906101000a900460ff1615610a57576040517f08c379a0000000000000000000000000000000000000000000000000000000008152600401610a4e90611459565b60405180910390fd5b6040518060c001604052808673ffffffffffffffffffffffffffffffffffffffff168152602001858152602001848152602001838152602001828152602001600115158152505f808773ffffffffffffffffffffffffffffffffffffffff1673ffffffffffffffffffffffffffffffffffffffff1681526020019081526020015f205f820151815f015f6101000a81548173ffffffffffffffffffffffffffffffffffffffff021916908373ffffffffffffffffffffffffffffffffffffffff1602179055506020820151816001015560408201518160020155606082015181600301556080820151816004015560a0820151816005015f6101000a81548160ff0219169083151502179055509050508160015f828254610b789190611152565b925050819055508473ffffffffffffffffffffffffffffffffffffffff167f747a12c5b34abe212a3a26b67b9a8edf3ceb6bd68207c9f6c11a5161432e161484604051610bc59190610db5565b60405180910390a25050505050565b60025f9054906101000a900473ffffffffffffffffffffffffffffffffffffffff1673ffffffffffffffffffffffffffffffffffffffff163373ffffffffffffffffffffffffffffffffffffffff1614610c63576040517f08c379a0000000000000000000000000000000000000000000000000000000008152600401610c5a9061122b565b60405180910390fd5b5f73ffffffffffffffffffffffffffffffffffffffff168173ffffffffffffffffffffffffffffffffffffffff1603610cd1576040517f08c379a0000000000000000000000000000000000000000000000000000000008152600401610cc8906114e7565b60405180910390fd5b8060035f6101000a81548173ffffffffffffffffffffffffffffffffffffffff021916908373ffffffffffffffffffffffffffffffffffffffff16021790555050565b5f80fd5b5f73ffffffffffffffffffffffffffffffffffffffff82169050919050565b5f610d4182610d18565b9050919050565b610d5181610d37565b8114610d5b575f80fd5b50565b5f81359050610d6c81610d48565b92915050565b5f60208284031215610d8757610d86610d14565b5b5f610d9484828501610d5e565b91505092915050565b5f819050919050565b610daf81610d9d565b82525050565b5f602082019050610dc85f830184610da6565b92915050565b610dd781610d9d565b8114610de1575f80fd5b50565b5f81359050610df281610dce565b92915050565b5f8060408385031215610e0e57610e0d610d14565b5b5f610e1b85828601610d5e565b9250506020610e2c85828601610de4565b9150509250929050565b610e3f81610d37565b82525050565b5f8115159050919050565b610e5981610e45565b82525050565b5f60c082019050610e725f830189610e36565b610e7f6020830188610da6565b610e8c6040830187610da6565b610e996060830186610da6565b610ea66080830185610da6565b610eb360a0830184610e50565b979650505050505050565b5f602082019050610ed15f830184610e36565b92915050565b5f805f805f60a08688031215610ef057610eef610d14565b5b5f610efd88828901610d5e565b9550506020610f0e88828901610de4565b9450506040610f1f88828901610de4565b9350506060610f3088828901610de4565b9250506080610f4188828901610de4565b9150509295509295909350565b5f82825260208201905092915050565b7f436f6e74726570617274696520696e61637469766500000000000000000000005f82015250565b5f610f92601583610f4e565b9150610f9d82610f5e565b602082019050919050565b5f6020820190508181035f830152610fbf81610f86565b9050919050565b7f4e487b71000000000000000000000000000000000000000000000000000000005f52601160045260245ffd5b5f610ffd82610d9d565b915061100883610d9d565b925082820261101681610d9d565b9150828204841483151761102d5761102c610fc6565b5b5092915050565b7f4e487b71000000000000000000000000000000000000000000000000000000005f52601260045260245ffd5b5f61106b82610d9d565b915061107683610d9d565b92508261108657611085611034565b5b828204905092915050565b7f4578706f736974696f6e2064657061737365206c61206c696d697465206175745f8201527f6f72697365650000000000000000000000000000000000000000000000000000602082015250565b5f6110eb602683610f4e565b91506110f682611091565b604082019050919050565b5f6020820190508181035f830152611118816110df565b9050919050565b5f61112982610d9d565b915061113483610d9d565b925082820390508181111561114c5761114b610fc6565b5b92915050565b5f61115c82610d9d565b915061116783610d9d565b925082820190508082111561117f5761117e610fc6565b5b92915050565b5f6060820190506111985f830186610da6565b6111a56020830185610da6565b6111b26040830184610da6565b949350505050565b5f6040820190506111cd5f830185610da6565b6111da6020830184610da6565b9392505050565b7f416363657320726573747265696e742061752070726f707269657461697265005f82015250565b5f611215601f83610f4e565b9150611220826111e1565b602082019050919050565b5f6020820190508181035f83015261124281611209565b9050919050565b7f4164726573736520696e76616c696465000000000000000000000000000000005f82015250565b5f61127d601083610f4e565b915061128882611249565b602082019050919050565b5f6020820190508181035f8301526112aa81611271565b9050919050565b7f53636f72652064652063726564697420696e76616c69646500000000000000005f82015250565b5f6112e5601883610f4e565b91506112f0826112b1565b602082019050919050565b5f6020820190508181035f830152611312816112d9565b9050919050565b7f4c696d6974652064276578706f736974696f6e20696e76616c696465000000005f82015250565b5f61134d601c83610f4e565b915061135882611319565b602082019050919050565b5f6020820190508181035f83015261137a81611341565b9050919050565b7f4578706f736974696f6e20636f7572616e74652064657061737365206c61206c5f8201527f696d697465000000000000000000000000000000000000000000000000000000602082015250565b5f6113db602583610f4e565b91506113e682611381565b604082019050919050565b5f6020820190508181035f830152611408816113cf565b9050919050565b7f436f6e7472657061727469652064656a6120656e7265676973747265650000005f82015250565b5f611443601d83610f4e565b915061144e8261140f565b602082019050919050565b5f6020820190508181035f83015261147081611437565b9050919050565b7f4e6f7576656c6c65206164726573736520656d65747465757220696e76616c695f8201527f6465000000000000000000000000000000000000000000000000000000000000602082015250565b5f6114d1602283610f4e565b91506114dc82611477565b604082019050919050565b5f6020820190508181035f8301526114fe816114c5565b905091905056fea264697066735822122078e75c0b09624548494e8cc0a0e4528bf004d3bd58d083a92065c0b15d4be31b64736f6c634300081a0033",
					"opcodes": "PUSH1 0x80 PUSH1 0x40 MSTORE CALLVALUE DUP1 ISZERO PUSH2 0xF JUMPI PUSH0 DUP1 REVERT JUMPDEST POP PUSH1 0x40 MLOAD PUSH2 0x176E CODESIZE SUB DUP1 PUSH2 0x176E DUP4 CODECOPY DUP2 DUP2 ADD PUSH1 0x40 MSTORE DUP2 ADD SWAP1 PUSH2 0x31 SWAP2 SWAP1 PUSH2 0x183 JUMP JUMPDEST PUSH0 PUSH20 0xFFFFFFFFFFFFFFFFFFFFFFFFFFFFFFFFFFFFFFFF AND DUP2 PUSH20 0xFFFFFFFFFFFFFFFFFFFFFFFFFFFFFFFFFFFFFFFF AND SUB PUSH2 0x9F JUMPI PUSH1 0x40 MLOAD PUSH32 0x8C379A000000000000000000000000000000000000000000000000000000000 DUP2 MSTORE PUSH1 0x4 ADD PUSH2 0x96 SWAP1 PUSH2 0x208 JUMP JUMPDEST PUSH1 0x40 MLOAD DUP1 SWAP2 SUB SWAP1 REVERT JUMPDEST CALLER PUSH1 0x2 PUSH0 PUSH2 0x100 EXP DUP2 SLOAD DUP2 PUSH20 0xFFFFFFFFFFFFFFFFFFFFFFFFFFFFFFFFFFFFFFFF MUL NOT AND SWAP1 DUP4 PUSH20 0xFFFFFFFFFFFFFFFFFFFFFFFFFFFFFFFFFFFFFFFF AND MUL OR SWAP1 SSTORE POP DUP1 PUSH1 0x3 PUSH0 PUSH2 0x100 EXP DUP2 SLOAD DUP2 PUSH20 0xFFFFFFFFFFFFFFFFFFFFFFFFFFFFFFFFFFFFFFFF MUL NOT AND SWAP1 DUP4 PUSH20 0xFFFFFFFFFFFFFFFFFFFFFFFFFFFFFFFFFFFFFFFF AND MUL OR SWAP1 SSTORE POP POP PUSH2 0x226 JUMP JUMPDEST PUSH0 DUP1 REVERT JUMPDEST PUSH0 PUSH20 0xFFFFFFFFFFFFFFFFFFFFFFFFFFFFFFFFFFFFFFFF DUP3 AND SWAP1 POP SWAP2 SWAP1 POP JUMP JUMPDEST PUSH0 PUSH2 0x152 DUP3 PUSH2 0x129 JUMP JUMPDEST SWAP1 POP SWAP2 SWAP1 POP JUMP JUMPDEST PUSH2 0x162 DUP2 PUSH2 0x148 JUMP JUMPDEST DUP2 EQ PUSH2 0x16C JUMPI PUSH0 DUP1 REVERT JUMPDEST POP JUMP JUMPDEST PUSH0 DUP2 MLOAD SWAP1 POP PUSH2 0x17D DUP2 PUSH2 0x159 JUMP JUMPDEST SWAP3 SWAP2 POP POP JUMP JUMPDEST PUSH0 PUSH1 0x20 DUP3 DUP5 SUB SLT ISZERO PUSH2 0x198 JUMPI PUSH2 0x197 PUSH2 0x125 JUMP JUMPDEST JUMPDEST PUSH0 PUSH2 0x1A5 DUP5 DUP3 DUP6 ADD PUSH2 0x16F JUMP JUMPDEST SWAP2 POP POP SWAP3 SWAP2 POP POP JUMP JUMPDEST PUSH0 DUP3 DUP3 MSTORE PUSH1 0x20 DUP3 ADD SWAP1 POP SWAP3 SWAP2 POP POP JUMP JUMPDEST PUSH32 0x4164726573736520656D65747465757220696E76616C69646500000000000000 PUSH0 DUP3 ADD MSTORE POP JUMP JUMPDEST PUSH0 PUSH2 0x1F2 PUSH1 0x19 DUP4 PUSH2 0x1AE JUMP JUMPDEST SWAP2 POP PUSH2 0x1FD DUP3 PUSH2 0x1BE JUMP JUMPDEST PUSH1 0x20 DUP3 ADD SWAP1 POP SWAP2 SWAP1 POP JUMP JUMPDEST PUSH0 PUSH1 0x20 DUP3 ADD SWAP1 POP DUP2 DUP2 SUB PUSH0 DUP4 ADD MSTORE PUSH2 0x21F DUP2 PUSH2 0x1E6 JUMP JUMPDEST SWAP1 POP SWAP2 SWAP1 POP JUMP JUMPDEST PUSH2 0x153B DUP1 PUSH2 0x233 PUSH0 CODECOPY PUSH0 RETURN INVALID PUSH1 0x80 PUSH1 0x40 MSTORE CALLVALUE DUP1 ISZERO PUSH2 0xF JUMPI PUSH0 DUP1 REVERT JUMPDEST POP PUSH1 0x4 CALLDATASIZE LT PUSH2 0x91 JUMPI PUSH0 CALLDATALOAD PUSH1 0xE0 SHR DUP1 PUSH4 0x79F883DA GT PUSH2 0x64 JUMPI DUP1 PUSH4 0x79F883DA EQ PUSH2 0x146 JUMPI DUP1 PUSH4 0x8518C6D4 EQ PUSH2 0x164 JUMPI DUP1 PUSH4 0x8DA5CB5B EQ PUSH2 0x182 JUMPI DUP1 PUSH4 0xC04DCC30 EQ PUSH2 0x1A0 JUMPI DUP1 PUSH4 0xF70A1017 EQ PUSH2 0x1BC JUMPI PUSH2 0x91 JUMP JUMPDEST DUP1 PUSH4 0xAAE162E EQ PUSH2 0x95 JUMPI DUP1 PUSH4 0x1922701E EQ PUSH2 0xC5 JUMPI DUP1 PUSH4 0x760B1EEE EQ PUSH2 0xE1 JUMPI DUP1 PUSH4 0x786A2D08 EQ PUSH2 0x116 JUMPI JUMPDEST PUSH0 DUP1 REVERT JUMPDEST PUSH2 0xAF PUSH1 0x4 DUP1 CALLDATASIZE SUB DUP2 ADD SWAP1 PUSH2 0xAA SWAP2 SWAP1 PUSH2 0xD72 JUMP JUMPDEST PUSH2 0x1D8 JUMP JUMPDEST PUSH1 0x40 MLOAD PUSH2 0xBC SWAP2 SWAP1 PUSH2 0xDB5 JUMP JUMPDEST PUSH1 0x40 MLOAD DUP1 SWAP2 SUB SWAP1 RETURN JUMPDEST PUSH2 0xDF PUSH1 0x4 DUP1 CALLDATASIZE SUB DUP2 ADD SWAP1 PUSH2 0xDA SWAP2 SWAP1 PUSH2 0xDF8 JUMP JUMPDEST PUSH2 0x33B JUMP JUMPDEST STOP JUMPDEST PUSH2 0xFB PUSH1 0x4 DUP1 CALLDATASIZE SUB DUP2 ADD SWAP1 PUSH2 0xF6 SWAP2 SWAP1 PUSH2 0xD72 JUMP JUMPDEST PUSH2 0x578 JUMP JUMPDEST PUSH1 0x40 MLOAD PUSH2 0x10D SWAP7 SWAP6 SWAP5 SWAP4 SWAP3 SWAP2 SWAP1 PUSH2 0xE5F JUMP JUMPDEST PUSH1 0x40 MLOAD DUP1 SWAP2 SUB SWAP1 RETURN JUMPDEST PUSH2 0x130 PUSH1 0x4 DUP1 CALLDATASIZE SUB DUP2 ADD SWAP1 PUSH2 0x12B SWAP2 SWAP1 PUSH2 0xD72 JUMP JUMPDEST PUSH2 0x5DA JUMP JUMPDEST PUSH1 0x40 MLOAD PUSH2 0x13D SWAP2 SWAP1 PUSH2 0xDB5 JUMP JUMPDEST PUSH1 0x40 MLOAD DUP1 SWAP2 SUB SWAP1 RETURN JUMPDEST PUSH2 0x14E PUSH2 0x7B7 JUMP JUMPDEST PUSH1 0x40 MLOAD PUSH2 0x15B SWAP2 SWAP1 PUSH2 0xDB5 JUMP JUMPDEST PUSH1 0x40 MLOAD DUP1 SWAP2 SUB SWAP1 RETURN JUMPDEST PUSH2 0x16C PUSH2 0x7BD JUMP JUMPDEST PUSH1 0x40 MLOAD PUSH2 0x179 SWAP2 SWAP1 PUSH2 0xEBE JUMP JUMPDEST PUSH1 0x40 MLOAD DUP1 SWAP2 SUB SWAP1 RETURN JUMPDEST PUSH2 0x18A PUSH2 0x7E2 JUMP JUMPDEST PUSH1 0x40 MLOAD PUSH2 0x197 SWAP2 SWAP1 PUSH2 0xEBE JUMP JUMPDEST PUSH1 0x40 MLOAD DUP1 SWAP2 SUB SWAP1 RETURN JUMPDEST PUSH2 0x1BA PUSH1 0x4 DUP1 CALLDATASIZE SUB DUP2 ADD SWAP1 PUSH2 0x1B5 SWAP2 SWAP1 PUSH2 0xED7 JUMP JUMPDEST PUSH2 0x807 JUMP JUMPDEST STOP JUMPDEST PUSH2 0x1D6 PUSH1 0x4 DUP1 CALLDATASIZE SUB DUP2 ADD SWAP1 PUSH2 0x1D1 SWAP2 SWAP1 PUSH2 0xD72 JUMP JUMPDEST PUSH2 0xBD4 JUMP JUMPDEST STOP JUMPDEST PUSH0 DUP1 PUSH0 DUP1 DUP5 PUSH20 0xFFFFFFFFFFFFFFFFFFFFFFFFFFFFFFFFFFFFFFFF AND PUSH20 0xFFFFFFFFFFFFFFFFFFFFFFFFFFFFFFFFFFFFFFFF AND DUP2 MSTORE PUSH1 0x20 ADD SWAP1 DUP2 MSTORE PUSH1 0x20 ADD PUSH0 KECCAK256 PUSH1 0x40 MLOAD DUP1 PUSH1 0xC0 ADD PUSH1 0x40 MSTORE SWAP1 DUP2 PUSH0 DUP3 ADD PUSH0 SWAP1 SLOAD SWAP1 PUSH2 0x100 EXP SWAP1 DIV PUSH20 0xFFFFFFFFFFFFFFFFFFFFFFFFFFFFFFFFFFFFFFFF AND PUSH20 0xFFFFFFFFFFFFFFFFFFFFFFFFFFFFFFFFFFFFFFFF AND PUSH20 0xFFFFFFFFFFFFFFFFFFFFFFFFFFFFFFFFFFFFFFFF AND DUP2 MSTORE PUSH1 0x20 ADD PUSH1 0x1 DUP3 ADD SLOAD DUP2 MSTORE PUSH1 0x20 ADD PUSH1 0x2 DUP3 ADD SLOAD DUP2 MSTORE PUSH1 0x20 ADD PUSH1 0x3 DUP3 ADD SLOAD DUP2 MSTORE PUSH1 0x20 ADD PUSH1 0x4 DUP3 ADD SLOAD DUP2 MSTORE PUSH1 0x20 ADD PUSH1 0x5 DUP3 ADD PUSH0 SWAP1 SLOAD SWAP1 PUSH2 0x100 EXP SWAP1 DIV PUSH1 0xFF AND ISZERO ISZERO ISZERO ISZERO DUP2 MSTORE POP POP SWAP1 POP DUP1 PUSH1 0xA0 ADD MLOAD PUSH2 0x2FD JUMPI PUSH1 0x40 MLOAD PUSH32 0x8C379A000000000000000000000000000000000000000000000000000000000 DUP2 MSTORE PUSH1 0x4 ADD PUSH2 0x2F4 SWAP1 PUSH2 0xFA8 JUMP JUMPDEST PUSH1 0x40 MLOAD DUP1 SWAP2 SUB SWAP1 REVERT JUMPDEST PUSH0 DUP2 PUSH1 0x60 ADD MLOAD GT ISZERO PUSH2 0x331 JUMPI DUP1 PUSH1 0x60 ADD MLOAD PUSH1 0x64 DUP3 PUSH1 0x80 ADD MLOAD PUSH2 0x31F SWAP2 SWAP1 PUSH2 0xFF3 JUMP JUMPDEST PUSH2 0x329 SWAP2 SWAP1 PUSH2 0x1061 JUMP JUMPDEST SWAP2 POP POP PUSH2 0x336 JUMP JUMPDEST PUSH0 SWAP2 POP POP JUMPDEST SWAP2 SWAP1 POP JUMP JUMPDEST PUSH0 DUP1 DUP4 PUSH20 0xFFFFFFFFFFFFFFFFFFFFFFFFFFFFFFFFFFFFFFFF AND PUSH20 0xFFFFFFFFFFFFFFFFFFFFFFFFFFFFFFFFFFFFFFFF AND DUP2 MSTORE PUSH1 0x20 ADD SWAP1 DUP2 MSTORE PUSH1 0x20 ADD PUSH0 KECCAK256 PUSH1 0x5 ADD PUSH0 SWAP1 SLOAD SWAP1 PUSH2 0x100 EXP SWAP1 DIV PUSH1 0xFF AND PUSH2 0x3C6 JUMPI PUSH1 0x40 MLOAD PUSH32 0x8C379A000000000000000000000000000000000000000000000000000000000 DUP2 MSTORE PUSH1 0x4 ADD PUSH2 0x3BD SWAP1 PUSH2 0xFA8 JUMP JUMPDEST PUSH1 0x40 MLOAD DUP1 SWAP2 SUB SWAP1 REVERT JUMPDEST PUSH0 DUP1 DUP4 PUSH20 0xFFFFFFFFFFFFFFFFFFFFFFFFFFFFFFFFFFFFFFFF AND PUSH20 0xFFFFFFFFFFFFFFFFFFFFFFFFFFFFFFFFFFFFFFFF AND DUP2 MSTORE PUSH1 0x20 ADD SWAP1 DUP2 MSTORE PUSH1 0x20 ADD PUSH0 KECCAK256 PUSH1 0x2 ADD SLOAD DUP2 GT ISZERO PUSH2 0x448 JUMPI PUSH1 0x40 MLOAD PUSH32 0x8C379A000000000000000000000000000000000000000000000000000000000 DUP2 MSTORE PUSH1 0x4 ADD PUSH2 0x43F SWAP1 PUSH2 0x1101 JUMP JUMPDEST PUSH1 0x40 MLOAD DUP1 SWAP2 SUB SWAP1 REVERT JUMPDEST PUSH0 DUP1 PUSH0 DUP5 PUSH20 0xFFFFFFFFFFFFFFFFFFFFFFFFFFFFFFFFFFFFFFFF AND PUSH20 0xFFFFFFFFFFFFFFFFFFFFFFFFFFFFFFFFFFFFFFFF AND DUP2 MSTORE PUSH1 0x20 ADD SWAP1 DUP2 MSTORE PUSH1 0x20 ADD PUSH0 KECCAK256 SWAP1 POP DUP2 DUP2 PUSH1 0x3 ADD SLOAD PUSH1 0x1 SLOAD PUSH2 0x49A SWAP2 SWAP1 PUSH2 0x111F JUMP JUMPDEST PUSH2 0x4A4 SWAP2 SWAP1 PUSH2 0x1152 JUMP JUMPDEST PUSH1 0x1 DUP2 SWAP1 SSTORE POP DUP2 DUP2 PUSH1 0x3 ADD DUP2 SWAP1 SSTORE POP DUP1 PUSH1 0x2 ADD SLOAD DUP2 PUSH1 0x3 ADD SLOAD GT ISZERO PUSH2 0x522 JUMPI DUP3 PUSH20 0xFFFFFFFFFFFFFFFFFFFFFFFFFFFFFFFFFFFFFFFF AND PUSH32 0xB857FB6CAE42949C03CF586273BCAEADA47B4819C5D68F8B91FD43393AF83896 DUP3 PUSH1 0x3 ADD SLOAD DUP4 PUSH1 0x2 ADD SLOAD TIMESTAMP PUSH1 0x40 MLOAD PUSH2 0x515 SWAP4 SWAP3 SWAP2 SWAP1 PUSH2 0x1185 JUMP JUMPDEST PUSH1 0x40 MLOAD DUP1 SWAP2 SUB SWAP1 LOG2 PUSH2 0x573 JUMP JUMPDEST DUP3 PUSH20 0xFFFFFFFFFFFFFFFFFFFFFFFFFFFFFFFFFFFFFFFF AND PUSH32 0x1C7018925C6453DC3925809F94085F519B73F3FBA1C0A19D41B8F936CA523FA8 DUP4 TIMESTAMP PUSH1 0x40 MLOAD PUSH2 0x56A SWAP3 SWAP2 SWAP1 PUSH2 0x11BA JUMP JUMPDEST PUSH1 0x40 MLOAD DUP1 SWAP2 SUB SWAP1 LOG2 JUMPDEST POP POP POP JUMP JUMPDEST PUSH0 PUSH1 0x20 MSTORE DUP1 PUSH0 MSTORE PUSH1 0x40 PUSH0 KECCAK256 PUSH0 SWAP2 POP SWAP1 POP DUP1 PUSH0 ADD PUSH0 SWAP1 SLOAD SWAP1 PUSH2 0x100 EXP SWAP1 DIV PUSH20 0xFFFFFFFFFFFFFFFFFFFFFFFFFFFFFFFFFFFFFFFF AND SWAP1 DUP1 PUSH1 0x1 ADD SLOAD SWAP1 DUP1 PUSH1 0x2 ADD SLOAD SWAP1 DUP1 PUSH1 0x3 ADD SLOAD SWAP1 DUP1 PUSH1 0x4 ADD SLOAD SWAP1 DUP1 PUSH1 0x5 ADD PUSH0 SWAP1 SLOAD SWAP1 PUSH2 0x100 EXP SWAP1 DIV PUSH1 0xFF AND SWAP1 POP DUP7 JUMP JUMPDEST PUSH0 DUP1 PUSH0 DUP4 PUSH20 0xFFFFFFFFFFFFFFFFFFFFFFFFFFFFFFFFFFFFFFFF AND PUSH20 0xFFFFFFFFFFFFFFFFFFFFFFFFFFFFFFFFFFFFFFFF AND DUP2 MSTORE PUSH1 0x20 ADD SWAP1 DUP2 MSTORE PUSH1 0x20 ADD PUSH0 KECCAK256 PUSH1 0x5 ADD PUSH0 SWAP1 SLOAD SWAP1 PUSH2 0x100 EXP SWAP1 DIV PUSH1 0xFF AND PUSH2 0x666 JUMPI PUSH1 0x40 MLOAD PUSH32 0x8C379A000000000000000000000000000000000000000000000000000000000 DUP2 MSTORE PUSH1 0x4 ADD PUSH2 0x65D SWAP1 PUSH2 0xFA8 JUMP JUMPDEST PUSH1 0x40 MLOAD DUP1 SWAP2 SUB SWAP1 REVERT JUMPDEST PUSH0 DUP1 PUSH0 DUP5 PUSH20 0xFFFFFFFFFFFFFFFFFFFFFFFFFFFFFFFFFFFFFFFF AND PUSH20 0xFFFFFFFFFFFFFFFFFFFFFFFFFFFFFFFFFFFFFFFF AND DUP2 MSTORE PUSH1 0x20 ADD SWAP1 DUP2 MSTORE PUSH1 0x20 ADD PUSH0 KECCAK256 PUSH1 0x40 MLOAD DUP1 PUSH1 0xC0 ADD PUSH1 0x40 MSTORE SWAP1 DUP2 PUSH0 DUP3 ADD PUSH0 SWAP1 SLOAD SWAP1 PUSH2 0x100 EXP SWAP1 DIV PUSH20 0xFFFFFFFFFFFFFFFFFFFFFFFFFFFFFFFFFFFFFFFF AND PUSH20 0xFFFFFFFFFFFFFFFFFFFFFFFFFFFFFFFFFFFFFFFF AND PUSH20 0xFFFFFFFFFFFFFFFFFFFFFFFFFFFFFFFFFFFFFFFF AND DUP2 MSTORE PUSH1 0x20 ADD PUSH1 0x1 DUP3 ADD SLOAD DUP2 MSTORE PUSH1 0x20 ADD PUSH1 0x2 DUP3 ADD SLOAD DUP2 MSTORE PUSH1 0x20 ADD PUSH1 0x3 DUP3 ADD SLOAD DUP2 MSTORE PUSH1 0x20 ADD PUSH1 0x4 DUP3 ADD SLOAD DUP2 MSTORE PUSH1 0x20 ADD PUSH1 0x5 DUP3 ADD PUSH0 SWAP1 SLOAD SWAP1 PUSH2 0x100 EXP SWAP1 DIV PUSH1 0xFF AND ISZERO ISZERO ISZERO ISZERO DUP2 MSTORE POP POP SWAP1 POP PUSH0 DUP2 PUSH1 0x40 ADD MLOAD EQ DUP1 PUSH2 0x75B JUMPI POP PUSH0 DUP2 PUSH1 0x20 ADD MLOAD EQ JUMPDEST ISZERO PUSH2 0x769 JUMPI PUSH0 SWAP2 POP POP PUSH2 0x7B2 JUMP JUMPDEST PUSH0 DUP2 PUSH1 0x40 ADD MLOAD PUSH1 0x64 DUP4 PUSH1 0x60 ADD MLOAD PUSH2 0x780 SWAP2 SWAP1 PUSH2 0xFF3 JUMP JUMPDEST PUSH2 0x78A SWAP2 SWAP1 PUSH2 0x1061 JUMP JUMPDEST SWAP1 POP PUSH0 DUP3 PUSH1 0x20 ADD MLOAD PUSH1 0x64 PUSH2 0x79E SWAP2 SWAP1 PUSH2 0x1061 JUMP JUMPDEST SWAP1 POP DUP1 DUP3 PUSH2 0x7AC SWAP2 SWAP1 PUSH2 0xFF3 JUMP JUMPDEST SWAP4 POP POP POP POP JUMPDEST SWAP2 SWAP1 POP JUMP JUMPDEST PUSH1 0x1 SLOAD DUP2 JUMP JUMPDEST PUSH1 0x3 PUSH0 SWAP1 SLOAD SWAP1 PUSH2 0x100 EXP SWAP1 DIV PUSH20 0xFFFFFFFFFFFFFFFFFFFFFFFFFFFFFFFFFFFFFFFF AND DUP2 JUMP JUMPDEST PUSH1 0x2 PUSH0 SWAP1 SLOAD SWAP1 PUSH2 0x100 EXP SWAP1 DIV PUSH20 0xFFFFFFFFFFFFFFFFFFFFFFFFFFFFFFFFFFFFFFFF AND DUP2 JUMP JUMPDEST PUSH1 0x2 PUSH0 SWAP1 SLOAD SWAP1 PUSH2 0x100 EXP SWAP1 DIV PUSH20 0xFFFFFFFFFFFFFFFFFFFFFFFFFFFFFFFFFFFFFFFF AND PUSH20 0xFFFFFFFFFFFFFFFFFFFFFFFFFFFFFFFFFFFFFFFF AND CALLER PUSH20 0xFFFFFFFFFFFFFFFFFFFFFFFFFFFFFFFFFFFFFFFF AND EQ PUSH2 0x896 JUMPI PUSH1 0x40 MLOAD PUSH32 0x8C379A000000000000000000000000000000000000000000000000000000000 DUP2 MSTORE PUSH1 0x4 ADD PUSH2 0x88D SWAP1 PUSH2 0x122B JUMP JUMPDEST PUSH1 0x40 MLOAD DUP1 SWAP2 SUB SWAP1 REVERT JUMPDEST PUSH0 PUSH20 0xFFFFFFFFFFFFFFFFFFFFFFFFFFFFFFFFFFFFFFFF AND DUP6 PUSH20 0xFFFFFFFFFFFFFFFFFFFFFFFFFFFFFFFFFFFFFFFF AND SUB PUSH2 0x904 JUMPI PUSH1 0x40 MLOAD PUSH32 0x8C379A000000000000000000000000000000000000000000000000000000000 DUP2 MSTORE PUSH1 0x4 ADD PUSH2 0x8FB SWAP1 PUSH2 0x1293 JUMP JUMPDEST PUSH1 0x40 MLOAD DUP1 SWAP2 SUB SWAP1 REVERT JUMPDEST PUSH0 DUP5 GT PUSH2 0x946 JUMPI PUSH1 0x40 MLOAD PUSH32 0x8C379A000000000000000000000000000000000000000000000000000000000 DUP2 MSTORE PUSH1 0x4 ADD PUSH2 0x93D SWAP1 PUSH2 0x12FB JUMP JUMPDEST PUSH1 0x40 MLOAD DUP1 SWAP2 SUB SWAP1 REVERT JUMPDEST PUSH0 DUP4 GT PUSH2 0x988 JUMPI PUSH1 0x40 MLOAD PUSH32 0x8C379A000000000000000000000000000000000000000000000000000000000 DUP2 MSTORE PUSH1 0x4 ADD PUSH2 0x97F SWAP1 PUSH2 0x1363 JUMP JUMPDEST PUSH1 0x40 MLOAD DUP1 SWAP2 SUB SWAP1 REVERT JUMPDEST DUP3 DUP3 GT ISZERO PUSH2 0x9CB JUMPI PUSH1 0x40 MLOAD PUSH32 0x8C379A000000000000000000000000000000000000000000000000000000000 DUP2 MSTORE PUSH1 0x4 ADD PUSH2 0x9C2 SWAP1 PUSH2 0x13F1 JUMP JUMPDEST PUSH1 0x40 MLOAD DUP1 SWAP2 SUB SWAP1 REVERT JUMPDEST PUSH0 DUP1 DUP7 PUSH20 0xFFFFFFFFFFFFFFFFFFFFFFFFFFFFFFFFFFFFFFFF AND PUSH20 0xFFFFFFFFFFFFFFFFFFFFFFFFFFFFFFFFFFFFFFFF AND DUP2 MSTORE PUSH1 0x20 ADD SWAP1 DUP2 MSTORE PUSH1 0x20 ADD PUSH0 KECCAK256 PUSH1 0x5 ADD PUSH0 SWAP1 SLOAD SWAP1 PUSH2 0x100 EXP SWAP1 DIV PUSH1 0xFF AND ISZERO PUSH2 0xA57 JUMPI PUSH1 0x40 MLOAD PUSH32 0x8C379A000000000000000000000000000000000000000000000000000000000 DUP2 MSTORE PUSH1 0x4 ADD PUSH2 0xA4E SWAP1 PUSH2 0x1459 JUMP JUMPDEST PUSH1 0x40 MLOAD DUP1 SWAP2 SUB SWAP1 REVERT JUMPDEST PUSH1 0x40 MLOAD DUP1 PUSH1 0xC0 ADD PUSH1 0x40 MSTORE DUP1 DUP7 PUSH20 0xFFFFFFFFFFFFFFFFFFFFFFFFFFFFFFFFFFFFFFFF AND DUP2 MSTORE PUSH1 0x20 ADD DUP6 DUP2 MSTORE PUSH1 0x20 ADD DUP5 DUP2 MSTORE PUSH1 0x20 ADD DUP4 DUP2 MSTORE PUSH1 0x20 ADD DUP3 DUP2 MSTORE PUSH1 0x20 ADD PUSH1 0x1 ISZERO ISZERO DUP2 MSTORE POP PUSH0 DUP1 DUP8 PUSH20 0xFFFFFFFFFFFFFFFFFFFFFFFFFFFFFFFFFFFFFFFF AND PUSH20 0xFFFFFFFFFFFFFFFFFFFFFFFFFFFFFFFFFFFFFFFF AND DUP2 MSTORE PUSH1 0x20 ADD SWAP1 DUP2 MSTORE PUSH1 0x20 ADD PUSH0 KECCAK256 PUSH0 DUP3 ADD MLOAD DUP2 PUSH0 ADD PUSH0 PUSH2 0x100 EXP DUP2 SLOAD DUP2 PUSH20 0xFFFFFFFFFFFFFFFFFFFFFFFFFFFFFFFFFFFFFFFF MUL NOT AND SWAP1 DUP4 PUSH20 0xFFFFFFFFFFFFFFFFFFFFFFFFFFFFFFFFFFFFFFFF AND MUL OR SWAP1 SSTORE POP PUSH1 0x20 DUP3 ADD MLOAD DUP2 PUSH1 0x1 ADD SSTORE PUSH1 0x40 DUP3 ADD MLOAD DUP2 PUSH1 0x2 ADD SSTORE PUSH1 0x60 DUP3 ADD MLOAD DUP2 PUSH1 0x3 ADD SSTORE PUSH1 0x80 DUP3 ADD MLOAD DUP2 PUSH1 0x4 ADD SSTORE PUSH1 0xA0 DUP3 ADD MLOAD DUP2 PUSH1 0x5 ADD PUSH0 PUSH2 0x100 EXP DUP2 SLOAD DUP2 PUSH1 0xFF MUL NOT AND SWAP1 DUP4 ISZERO ISZERO MUL OR SWAP1 SSTORE POP SWAP1 POP POP DUP2 PUSH1 0x1 PUSH0 DUP3 DUP3 SLOAD PUSH2 0xB78 SWAP2 SWAP1 PUSH2 0x1152 JUMP JUMPDEST SWAP3 POP POP DUP2 SWAP1 SSTORE POP DUP5 PUSH20 0xFFFFFFFFFFFFFFFFFFFFFFFFFFFFFFFFFFFFFFFF AND PUSH32 0x747A12C5B34ABE212A3A26B67B9A8EDF3CEB6BD68207C9F6C11A5161432E1614 DUP5 PUSH1 0x40 MLOAD PUSH2 0xBC5 SWAP2 SWAP1 PUSH2 0xDB5 JUMP JUMPDEST PUSH1 0x40 MLOAD DUP1 SWAP2 SUB SWAP1 LOG2 POP POP POP POP POP JUMP JUMPDEST PUSH1 0x2 PUSH0 SWAP1 SLOAD SWAP1 PUSH2 0x100 EXP SWAP1 DIV PUSH20 0xFFFFFFFFFFFFFFFFFFFFFFFFFFFFFFFFFFFFFFFF AND PUSH20 0xFFFFFFFFFFFFFFFFFFFFFFFFFFFFFFFFFFFFFFFF AND CALLER PUSH20 0xFFFFFFFFFFFFFFFFFFFFFFFFFFFFFFFFFFFFFFFF AND EQ PUSH2 0xC63 JUMPI PUSH1 0x40 MLOAD PUSH32 0x8C379A000000000000000000000000000000000000000000000000000000000 DUP2 MSTORE PUSH1 0x4 ADD PUSH2 0xC5A SWAP1 PUSH2 0x122B JUMP JUMPDEST PUSH1 0x40 MLOAD DUP1 SWAP2 SUB SWAP1 REVERT JUMPDEST PUSH0 PUSH20 0xFFFFFFFFFFFFFFFFFFFFFFFFFFFFFFFFFFFFFFFF AND DUP2 PUSH20 0xFFFFFFFFFFFFFFFFFFFFFFFFFFFFFFFFFFFFFFFF AND SUB PUSH2 0xCD1 JUMPI PUSH1 0x40 MLOAD PUSH32 0x8C379A000000000000000000000000000000000000000000000000000000000 DUP2 MSTORE PUSH1 0x4 ADD PUSH2 0xCC8 SWAP1 PUSH2 0x14E7 JUMP JUMPDEST PUSH1 0x40 MLOAD DUP1 SWAP2 SUB SWAP1 REVERT JUMPDEST DUP1 PUSH1 0x3 PUSH0 PUSH2 0x100 EXP DUP2 SLOAD DUP2 PUSH20 0xFFFFFFFFFFFFFFFFFFFFFFFFFFFFFFFFFFFFFFFF MUL NOT AND SWAP1 DUP4 PUSH20 0xFFFFFFFFFFFFFFFFFFFFFFFFFFFFFFFFFFFFFFFF AND MUL OR SWAP1 SSTORE POP POP JUMP JUMPDEST PUSH0 DUP1 REVERT JUMPDEST PUSH0 PUSH20 0xFFFFFFFFFFFFFFFFFFFFFFFFFFFFFFFFFFFFFFFF DUP3 AND SWAP1 POP SWAP2 SWAP1 POP JUMP JUMPDEST PUSH0 PUSH2 0xD41 DUP3 PUSH2 0xD18 JUMP JUMPDEST SWAP1 POP SWAP2 SWAP1 POP JUMP JUMPDEST PUSH2 0xD51 DUP2 PUSH2 0xD37 JUMP JUMPDEST DUP2 EQ PUSH2 0xD5B JUMPI PUSH0 DUP1 REVERT JUMPDEST POP JUMP JUMPDEST PUSH0 DUP2 CALLDATALOAD SWAP1 POP PUSH2 0xD6C DUP2 PUSH2 0xD48 JUMP JUMPDEST SWAP3 SWAP2 POP POP JUMP JUMPDEST PUSH0 PUSH1 0x20 DUP3 DUP5 SUB SLT ISZERO PUSH2 0xD87 JUMPI PUSH2 0xD86 PUSH2 0xD14 JUMP JUMPDEST JUMPDEST PUSH0 PUSH2 0xD94 DUP5 DUP3 DUP6 ADD PUSH2 0xD5E JUMP JUMPDEST SWAP2 POP POP SWAP3 SWAP2 POP POP JUMP JUMPDEST PUSH0 DUP2 SWAP1 POP SWAP2 SWAP1 POP JUMP JUMPDEST PUSH2 0xDAF DUP2 PUSH2 0xD9D JUMP JUMPDEST DUP3 MSTORE POP POP JUMP JUMPDEST PUSH0 PUSH1 0x20 DUP3 ADD SWAP1 POP PUSH2 0xDC8 PUSH0 DUP4 ADD DUP5 PUSH2 0xDA6 JUMP JUMPDEST SWAP3 SWAP2 POP POP JUMP JUMPDEST PUSH2 0xDD7 DUP2 PUSH2 0xD9D JUMP JUMPDEST DUP2 EQ PUSH2 0xDE1 JUMPI PUSH0 DUP1 REVERT JUMPDEST POP JUMP JUMPDEST PUSH0 DUP2 CALLDATALOAD SWAP1 POP PUSH2 0xDF2 DUP2 PUSH2 0xDCE JUMP JUMPDEST SWAP3 SWAP2 POP POP JUMP JUMPDEST PUSH0 DUP1 PUSH1 0x40 DUP4 DUP6 SUB SLT ISZERO PUSH2 0xE0E JUMPI PUSH2 0xE0D PUSH2 0xD14 JUMP JUMPDEST JUMPDEST PUSH0 PUSH2 0xE1B DUP6 DUP3 DUP7 ADD PUSH2 0xD5E JUMP JUMPDEST SWAP3 POP POP PUSH1 0x20 PUSH2 0xE2C DUP6 DUP3 DUP7 ADD PUSH2 0xDE4 JUMP JUMPDEST SWAP2 POP POP SWAP3 POP SWAP3 SWAP1 POP JUMP JUMPDEST PUSH2 0xE3F DUP2 PUSH2 0xD37 JUMP JUMPDEST DUP3 MSTORE POP POP JUMP JUMPDEST PUSH0 DUP2 ISZERO ISZERO SWAP1 POP SWAP2 SWAP1 POP JUMP JUMPDEST PUSH2 0xE59 DUP2 PUSH2 0xE45 JUMP JUMPDEST DUP3 MSTORE POP POP JUMP JUMPDEST PUSH0 PUSH1 0xC0 DUP3 ADD SWAP1 POP PUSH2 0xE72 PUSH0 DUP4 ADD DUP10 PUSH2 0xE36 JUMP JUMPDEST PUSH2 0xE7F PUSH1 0x20 DUP4 ADD DUP9 PUSH2 0xDA6 JUMP JUMPDEST PUSH2 0xE8C PUSH1 0x40 DUP4 ADD DUP8 PUSH2 0xDA6 JUMP JUMPDEST PUSH2 0xE99 PUSH1 0x60 DUP4 ADD DUP7 PUSH2 0xDA6 JUMP JUMPDEST PUSH2 0xEA6 PUSH1 0x80 DUP4 ADD DUP6 PUSH2 0xDA6 JUMP JUMPDEST PUSH2 0xEB3 PUSH1 0xA0 DUP4 ADD DUP5 PUSH2 0xE50 JUMP JUMPDEST SWAP8 SWAP7 POP POP POP POP POP POP POP JUMP JUMPDEST PUSH0 PUSH1 0x20 DUP3 ADD SWAP1 POP PUSH2 0xED1 PUSH0 DUP4 ADD DUP5 PUSH2 0xE36 JUMP JUMPDEST SWAP3 SWAP2 POP POP JUMP JUMPDEST PUSH0 DUP1 PUSH0 DUP1 PUSH0 PUSH1 0xA0 DUP7 DUP9 SUB SLT ISZERO PUSH2 0xEF0 JUMPI PUSH2 0xEEF PUSH2 0xD14 JUMP JUMPDEST JUMPDEST PUSH0 PUSH2 0xEFD DUP9 DUP3 DUP10 ADD PUSH2 0xD5E JUMP JUMPDEST SWAP6 POP POP PUSH1 0x20 PUSH2 0xF0E DUP9 DUP3 DUP10 ADD PUSH2 0xDE4 JUMP JUMPDEST SWAP5 POP POP PUSH1 0x40 PUSH2 0xF1F DUP9 DUP3 DUP10 ADD PUSH2 0xDE4 JUMP JUMPDEST SWAP4 POP POP PUSH1 0x60 PUSH2 0xF30 DUP9 DUP3 DUP10 ADD PUSH2 0xDE4 JUMP JUMPDEST SWAP3 POP POP PUSH1 0x80 PUSH2 0xF41 DUP9 DUP3 DUP10 ADD PUSH2 0xDE4 JUMP JUMPDEST SWAP2 POP POP SWAP3 SWAP6 POP SWAP3 SWAP6 SWAP1 SWAP4 POP JUMP JUMPDEST PUSH0 DUP3 DUP3 MSTORE PUSH1 0x20 DUP3 ADD SWAP1 POP SWAP3 SWAP2 POP POP JUMP JUMPDEST PUSH32 0x436F6E74726570617274696520696E6163746976650000000000000000000000 PUSH0 DUP3 ADD MSTORE POP JUMP JUMPDEST PUSH0 PUSH2 0xF92 PUSH1 0x15 DUP4 PUSH2 0xF4E JUMP JUMPDEST SWAP2 POP PUSH2 0xF9D DUP3 PUSH2 0xF5E JUMP JUMPDEST PUSH1 0x20 DUP3 ADD SWAP1 POP SWAP2 SWAP1 POP JUMP JUMPDEST PUSH0 PUSH1 0x20 DUP3 ADD SWAP1 POP DUP2 DUP2 SUB PUSH0 DUP4 ADD MSTORE PUSH2 0xFBF DUP2 PUSH2 0xF86 JUMP JUMPDEST SWAP1 POP SWAP2 SWAP1 POP JUMP JUMPDEST PUSH32 0x4E487B7100000000000000000000000000000000000000000000000000000000 PUSH0 MSTORE PUSH1 0x11 PUSH1 0x4 MSTORE PUSH1 0x24 PUSH0 REVERT JUMPDEST PUSH0 PUSH2 0xFFD DUP3 PUSH2 0xD9D JUMP JUMPDEST SWAP2 POP PUSH2 0x1008 DUP4 PUSH2 0xD9D JUMP JUMPDEST SWAP3 POP DUP3 DUP3 MUL PUSH2 0x1016 DUP2 PUSH2 0xD9D JUMP JUMPDEST SWAP2 POP DUP3 DUP3 DIV DUP5 EQ DUP4 ISZERO OR PUSH2 0x102D JUMPI PUSH2 0x102C PUSH2 0xFC6 JUMP JUMPDEST JUMPDEST POP SWAP3 SWAP2 POP POP JUMP JUMPDEST PUSH32 0x4E487B7100000000000000000000000000000000000000000000000000000000 PUSH0 MSTORE PUSH1 0x12 PUSH1 0x4 MSTORE PUSH1 0x24 PUSH0 REVERT JUMPDEST PUSH0 PUSH2 0x106B DUP3 PUSH2 0xD9D JUMP JUMPDEST SWAP2 POP PUSH2 0x1076 DUP4 PUSH2 0xD9D JUMP JUMPDEST SWAP3 POP DUP3 PUSH2 0x1086 JUMPI PUSH2 0x1085 PUSH2 0x1034 JUMP JUMPDEST JUMPDEST DUP3 DUP3 DIV SWAP1 POP SWAP3 SWAP2 POP POP JUMP JUMPDEST PUSH32 0x4578706F736974696F6E2064657061737365206C61206C696D69746520617574 PUSH0 DUP3 ADD MSTORE PUSH32 0x6F72697365650000000000000000000000000000000000000000000000000000 PUSH1 0x20 DUP3 ADD MSTORE POP JUMP JUMPDEST PUSH0 PUSH2 0x10EB PUSH1 0x26 DUP4 PUSH2 0xF4E JUMP JUMPDEST SWAP2 POP PUSH2 0x10F6 DUP3 PUSH2 0x1091 JUMP JUMPDEST PUSH1 0x40 DUP3 ADD SWAP1 POP SWAP2 SWAP1 POP JUMP JUMPDEST PUSH0 PUSH1 0x20 DUP3 ADD SWAP1 POP DUP2 DUP2 SUB PUSH0 DUP4 ADD MSTORE PUSH2 0x1118 DUP2 PUSH2 0x10DF JUMP JUMPDEST SWAP1 POP SWAP2 SWAP1 POP JUMP JUMPDEST PUSH0 PUSH2 0x1129 DUP3 PUSH2 0xD9D JUMP JUMPDEST SWAP2 POP PUSH2 0x1134 DUP4 PUSH2 0xD9D JUMP JUMPDEST SWAP3 POP DUP3 DUP3 SUB SWAP1 POP DUP2 DUP2 GT ISZERO PUSH2 0x114C JUMPI PUSH2 0x114B PUSH2 0xFC6 JUMP JUMPDEST JUMPDEST SWAP3 SWAP2 POP POP JUMP JUMPDEST PUSH0 PUSH2 0x115C DUP3 PUSH2 0xD9D JUMP JUMPDEST SWAP2 POP PUSH2 0x1167 DUP4 PUSH2 0xD9D JUMP JUMPDEST SWAP3 POP DUP3 DUP3 ADD SWAP1 POP DUP1 DUP3 GT ISZERO PUSH2 0x117F JUMPI PUSH2 0x117E PUSH2 0xFC6 JUMP JUMPDEST JUMPDEST SWAP3 SWAP2 POP POP JUMP JUMPDEST PUSH0 PUSH1 0x60 DUP3 ADD SWAP1 POP PUSH2 0x1198 PUSH0 DUP4 ADD DUP7 PUSH2 0xDA6 JUMP JUMPDEST PUSH2 0x11A5 PUSH1 0x20 DUP4 ADD DUP6 PUSH2 0xDA6 JUMP JUMPDEST PUSH2 0x11B2 PUSH1 0x40 DUP4 ADD DUP5 PUSH2 0xDA6 JUMP JUMPDEST SWAP5 SWAP4 POP POP POP POP JUMP JUMPDEST PUSH0 PUSH1 0x40 DUP3 ADD SWAP1 POP PUSH2 0x11CD PUSH0 DUP4 ADD DUP6 PUSH2 0xDA6 JUMP JUMPDEST PUSH2 0x11DA PUSH1 0x20 DUP4 ADD DUP5 PUSH2 0xDA6 JUMP JUMPDEST SWAP4 SWAP3 POP POP POP JUMP JUMPDEST PUSH32 0x416363657320726573747265696E742061752070726F70726965746169726500 PUSH0 DUP3 ADD MSTORE POP JUMP JUMPDEST PUSH0 PUSH2 0x1215 PUSH1 0x1F DUP4 PUSH2 0xF4E JUMP JUMPDEST SWAP2 POP PUSH2 0x1220 DUP3 PUSH2 0x11E1 JUMP JUMPDEST PUSH1 0x20 DUP3 ADD SWAP1 POP SWAP2 SWAP1 POP JUMP JUMPDEST PUSH0 PUSH1 0x20 DUP3 ADD SWAP1 POP DUP2 DUP2 SUB PUSH0 DUP4 ADD MSTORE PUSH2 0x1242 DUP2 PUSH2 0x1209 JUMP JUMPDEST SWAP1 POP SWAP2 SWAP1 POP JUMP JUMPDEST PUSH32 0x4164726573736520696E76616C69646500000000000000000000000000000000 PUSH0 DUP3 ADD MSTORE POP JUMP JUMPDEST PUSH0 PUSH2 0x127D PUSH1 0x10 DUP4 PUSH2 0xF4E JUMP JUMPDEST SWAP2 POP PUSH2 0x1288 DUP3 PUSH2 0x1249 JUMP JUMPDEST PUSH1 0x20 DUP3 ADD SWAP1 POP SWAP2 SWAP1 POP JUMP JUMPDEST PUSH0 PUSH1 0x20 DUP3 ADD SWAP1 POP DUP2 DUP2 SUB PUSH0 DUP4 ADD MSTORE PUSH2 0x12AA DUP2 PUSH2 0x1271 JUMP JUMPDEST SWAP1 POP SWAP2 SWAP1 POP JUMP JUMPDEST PUSH32 0x53636F72652064652063726564697420696E76616C6964650000000000000000 PUSH0 DUP3 ADD MSTORE POP JUMP JUMPDEST PUSH0 PUSH2 0x12E5 PUSH1 0x18 DUP4 PUSH2 0xF4E JUMP JUMPDEST SWAP2 POP PUSH2 0x12F0 DUP3 PUSH2 0x12B1 JUMP JUMPDEST PUSH1 0x20 DUP3 ADD SWAP1 POP SWAP2 SWAP1 POP JUMP JUMPDEST PUSH0 PUSH1 0x20 DUP3 ADD SWAP1 POP DUP2 DUP2 SUB PUSH0 DUP4 ADD MSTORE PUSH2 0x1312 DUP2 PUSH2 0x12D9 JUMP JUMPDEST SWAP1 POP SWAP2 SWAP1 POP JUMP JUMPDEST PUSH32 0x4C696D6974652064276578706F736974696F6E20696E76616C69646500000000 PUSH0 DUP3 ADD MSTORE POP JUMP JUMPDEST PUSH0 PUSH2 0x134D PUSH1 0x1C DUP4 PUSH2 0xF4E JUMP JUMPDEST SWAP2 POP PUSH2 0x1358 DUP3 PUSH2 0x1319 JUMP JUMPDEST PUSH1 0x20 DUP3 ADD SWAP1 POP SWAP2 SWAP1 POP JUMP JUMPDEST PUSH0 PUSH1 0x20 DUP3 ADD SWAP1 POP DUP2 DUP2 SUB PUSH0 DUP4 ADD MSTORE PUSH2 0x137A DUP2 PUSH2 0x1341 JUMP JUMPDEST SWAP1 POP SWAP2 SWAP1 POP JUMP JUMPDEST PUSH32 0x4578706F736974696F6E20636F7572616E74652064657061737365206C61206C PUSH0 DUP3 ADD MSTORE PUSH32 0x696D697465000000000000000000000000000000000000000000000000000000 PUSH1 0x20 DUP3 ADD MSTORE POP JUMP JUMPDEST PUSH0 PUSH2 0x13DB PUSH1 0x25 DUP4 PUSH2 0xF4E JUMP JUMPDEST SWAP2 POP PUSH2 0x13E6 DUP3 PUSH2 0x1381 JUMP JUMPDEST PUSH1 0x40 DUP3 ADD SWAP1 POP SWAP2 SWAP1 POP JUMP JUMPDEST PUSH0 PUSH1 0x20 DUP3 ADD SWAP1 POP DUP2 DUP2 SUB PUSH0 DUP4 ADD MSTORE PUSH2 0x1408 DUP2 PUSH2 0x13CF JUMP JUMPDEST SWAP1 POP SWAP2 SWAP1 POP JUMP JUMPDEST PUSH32 0x436F6E7472657061727469652064656A6120656E726567697374726565000000 PUSH0 DUP3 ADD MSTORE POP JUMP JUMPDEST PUSH0 PUSH2 0x1443 PUSH1 0x1D DUP4 PUSH2 0xF4E JUMP JUMPDEST SWAP2 POP PUSH2 0x144E DUP3 PUSH2 0x140F JUMP JUMPDEST PUSH1 0x20 DUP3 ADD SWAP1 POP SWAP2 SWAP1 POP JUMP JUMPDEST PUSH0 PUSH1 0x20 DUP3 ADD SWAP1 POP DUP2 DUP2 SUB PUSH0 DUP4 ADD MSTORE PUSH2 0x1470 DUP2 PUSH2 0x1437 JUMP JUMPDEST SWAP1 POP SWAP2 SWAP1 POP JUMP JUMPDEST PUSH32 0x4E6F7576656C6C65206164726573736520656D65747465757220696E76616C69 PUSH0 DUP3 ADD MSTORE PUSH32 0x6465000000000000000000000000000000000000000000000000000000000000 PUSH1 0x20 DUP3 ADD MSTORE POP JUMP JUMPDEST PUSH0 PUSH2 0x14D1 PUSH1 0x22 DUP4 PUSH2 0xF4E JUMP JUMPDEST SWAP2 POP PUSH2 0x14DC DUP3 PUSH2 0x1477 JUMP JUMPDEST PUSH1 0x40 DUP3 ADD SWAP1 POP SWAP2 SWAP1 POP JUMP JUMPDEST PUSH0 PUSH1 0x20 DUP3 ADD SWAP1 POP DUP2 DUP2 SUB PUSH0 DUP4 ADD MSTORE PUSH2 0x14FE DUP2 PUSH2 0x14C5 JUMP JUMPDEST SWAP1 POP SWAP2 SWAP1 POP JUMP INVALID LOG2 PUSH5 0x6970667358 0x22 SLT KECCAK256 PUSH25 0xE75C0B09624548494E8CC0A0E4528BF004D3BD58D083A92065 0xC0 0xB1 TSTORE 0x4B 0xE3 SHL PUSH5 0x736F6C6343 STOP ADDMOD BYTE STOP CALLER "
				},
				"gasEstimates": {
					"creation": {
						"codeDepositCost": "1087000",
						"executionCost": "infinite",
						"totalCost": "infinite"
					},
					"external": {
						"ajouterContrepartie(address,uint256,uint256,uint256,uint256)": "infinite",
						"calculerRatioCouverture(address)": "infinite",
						"calculerScoreRisque(address)": "infinite",
						"contreparties(address)": "infinite",
						"emetteur()": "2530",
						"mettreAJourExposition(address,uint256)": "infinite",
						"modifierEmetteur(address)": "27006",
						"owner()": "2552",
						"totalExposure()": "2425"
					}
				},
				"methodIdentifiers": {
					"ajouterContrepartie(address,uint256,uint256,uint256,uint256)": "c04dcc30",
					"calculerRatioCouverture(address)": "0aae162e",
					"calculerScoreRisque(address)": "786a2d08",
					"contreparties(address)": "760b1eee",
					"emetteur()": "8518c6d4",
					"mettreAJourExposition(address,uint256)": "1922701e",
					"modifierEmetteur(address)": "f70a1017",
					"owner()": "8da5cb5b",
					"totalExposure()": "79f883da"
				}
			},
			"storageLayout": {
				"storage": [
					{
						"astId": 20,
						"contract": ".git/Risk/Contrepartie.sol:GestionnaireRisqueContrepartie",
						"label": "contreparties",
						"offset": 0,
						"slot": "0",
						"type": "t_mapping(t_address,t_struct(Contrepartie)15_storage)"
					},
					{
						"astId": 22,
						"contract": ".git/Risk/Contrepartie.sol:GestionnaireRisqueContrepartie",
						"label": "totalExposure",
						"offset": 0,
						"slot": "1",
						"type": "t_uint256"
					},
					{
						"astId": 24,
						"contract": ".git/Risk/Contrepartie.sol:GestionnaireRisqueContrepartie",
						"label": "owner",
						"offset": 0,
						"slot": "2",
						"type": "t_address"
					},
					{
						"astId": 26,
						"contract": ".git/Risk/Contrepartie.sol:GestionnaireRisqueContrepartie",
						"label": "emetteur",
						"offset": 0,
						"slot": "3",
						"type": "t_address"
					}
				],
				"types": {
					"t_address": {
						"encoding": "inplace",
						"label": "address",
						"numberOfBytes": "20"
					},
					"t_bool": {
						"encoding": "inplace",
						"label": "bool",
						"numberOfBytes": "1"
					},
					"t_mapping(t_address,t_struct(Contrepartie)15_storage)": {
						"encoding": "mapping",
						"key": "t_address",
						"label": "mapping(address => struct GestionnaireRisqueContrepartie.Contrepartie)",
						"numberOfBytes": "32",
						"value": "t_struct(Contrepartie)15_storage"
					},
					"t_struct(Contrepartie)15_storage": {
						"encoding": "inplace",
						"label": "struct GestionnaireRisqueContrepartie.Contrepartie",
						"members": [
							{
								"astId": 4,
								"contract": ".git/Risk/Contrepartie.sol:GestionnaireRisqueContrepartie",
								"label": "portefeuille",
								"offset": 0,
								"slot": "0",
								"type": "t_address"
							},
							{
								"astId": 6,
								"contract": ".git/Risk/Contrepartie.sol:GestionnaireRisqueContrepartie",
								"label": "scoreCredit",
								"offset": 0,
								"slot": "1",
								"type": "t_uint256"
							},
							{
								"astId": 8,
								"contract": ".git/Risk/Contrepartie.sol:GestionnaireRisqueContrepartie",
								"label": "limiteExposition",
								"offset": 0,
								"slot": "2",
								"type": "t_uint256"
							},
							{
								"astId": 10,
								"contract": ".git/Risk/Contrepartie.sol:GestionnaireRisqueContrepartie",
								"label": "expositionCourante",
								"offset": 0,
								"slot": "3",
								"type": "t_uint256"
							},
							{
								"astId": 12,
								"contract": ".git/Risk/Contrepartie.sol:GestionnaireRisqueContrepartie",
								"label": "collateral",
								"offset": 0,
								"slot": "4",
								"type": "t_uint256"
							},
							{
								"astId": 14,
								"contract": ".git/Risk/Contrepartie.sol:GestionnaireRisqueContrepartie",
								"label": "estActif",
								"offset": 0,
								"slot": "5",
								"type": "t_bool"
							}
						],
						"numberOfBytes": "192"
					},
					"t_uint256": {
						"encoding": "inplace",
						"label": "uint256",
						"numberOfBytes": "32"
					}
				}
			},
			"userdoc": {
				"kind": "user",
				"methods": {},
				"version": 1
			}
		}
	}
}